{
    "contractName": "Auth",
    "abi": [
        {
            "inputs": [
                {
                    "internalType": "address",
                    "name": "deployer",
                    "type": "address"
                }
            ],
            "stateMutability": "nonpayable",
            "type": "constructor"
        },
        {
            "inputs": [
                {
                    "internalType": "address",
                    "name": "user",
                    "type": "address"
                }
            ],
            "name": "isAdministrator",
            "outputs": [
                {
                    "internalType": "bool",
                    "name": "",
                    "type": "bool"
                }
            ],
            "stateMutability": "view",
            "type": "function"
        }
    ],
    "bytecode": "608060405234801561001057600080fd5b5060405161015638038061015683398101604081905261002f91610054565b600080546001600160a01b0319166001600160a01b0392909216919091179055610084565b60006020828403121561006657600080fd5b81516001600160a01b038116811461007d57600080fd5b9392505050565b60c4806100926000396000f3fe6080604052348015600f57600080fd5b506004361060285760003560e01c80630a2eb30114602d575b600080fd5b604c60383660046060565b6000546001600160a01b0391821691161490565b604051901515815260200160405180910390f35b600060208284031215607157600080fd5b81356001600160a01b0381168114608757600080fd5b939250505056fea264697066735822122008f9535905fbb482155dbb6d094877e0b49edae498fb1851ceacf508b4e79aaf64736f6c63430008090033",
    "sourcePath": "c:/Users/User/Documents/SpartaDev/spartan-contracts/contracts/auth.sol",
    "compiler": {
        "name": "solc",
        "version": "0.8.9+commit.e5eed63a"
    },
    "functionHashes": {
        "isAdministrator(address)": "0a2eb301"
    },
    "gasEstimates": {
        "creation": {
            "codeDepositCost": "39200",
            "executionCost": "infinite",
            "totalCost": "infinite"
        },
        "external": {
            "isAdministrator(address)": "2423"
        }
    }
}