{
    "contractName": "HANDLER",
    "abi": [
        {
            "inputs": [
                {
                    "internalType": "address",
                    "name": "_base",
                    "type": "address"
                }
            ],
            "stateMutability": "nonpayable",
            "type": "constructor"
        },
        {
            "inputs": [],
            "name": "BASE",
            "outputs": [
                {
                    "internalType": "address",
                    "name": "",
                    "type": "address"
                }
            ],
            "stateMutability": "view",
            "type": "function"
        },
        {
            "inputs": [],
            "name": "Handler",
            "outputs": [
                {
                    "internalType": "address",
                    "name": "",
                    "type": "address"
                }
            ],
            "stateMutability": "view",
            "type": "function"
        },
        {
            "inputs": [],
            "name": "purgeDeployer",
            "outputs": [],
            "stateMutability": "nonpayable",
            "type": "function"
        },
        {
            "inputs": [
                {
                    "internalType": "address",
                    "name": "_tools",
                    "type": "address"
                },
                {
                    "internalType": "address",
                    "name": "_reserve",
                    "type": "address"
                },
                {
                    "internalType": "address",
                    "name": "_poolFactory",
                    "type": "address"
                }
            ],
            "name": "setGenesisAddresses",
            "outputs": [],
            "stateMutability": "nonpayable",
            "type": "function"
        }
    ],
    "bytecode": "60a060405234801561001057600080fd5b5060405161028238038061028283398101604081905261002f91610060565b6001600160a01b0316608052600080546001600160a01b031990811633179091556001805490911630179055610090565b60006020828403121561007257600080fd5b81516001600160a01b038116811461008957600080fd5b9392505050565b6080516101d86100aa600039600060a201526101d86000f3fe608060405234801561001057600080fd5b506004361061004c5760003560e01c806303a8213814610051578063562dd5461461005b5780638601b9e61461008a578063ec342ad01461009d575b600080fd5b6100596100c4565b005b60015461006e906001600160a01b031681565b6040516001600160a01b03909116815260200160405180910390f35b61005961009836600461015f565b6100ed565b61006e7f000000000000000000000000000000000000000000000000000000000000000081565b6000546001600160a01b031633146100db57600080fd5b600080546001600160a01b0319169055565b6000546001600160a01b0316331461010457600080fd5b600380546001600160a01b039485166001600160a01b031991821617909155600480549385169382169390931790925560028054919093169116179055565b80356001600160a01b038116811461015a57600080fd5b919050565b60008060006060848603121561017457600080fd5b61017d84610143565b925061018b60208501610143565b915061019960408501610143565b9050925092509256fea264697066735822122066962ac97b457769e987a45cc64b77e68381fe18bbd4cfdd05bf19caf3122a9164736f6c63430008090033",
    "sourcePath": "c:/Users/User/Documents/SpartaDev/spartan-contracts/contracts/HANDLER.sol",
    "compiler": {
        "name": "solc",
        "version": "0.8.9+commit.e5eed63a"
    },
    "functionHashes": {
        "BASE()": "ec342ad0",
        "Handler()": "562dd546",
        "purgeDeployer()": "03a82138",
        "setGenesisAddresses(address,address,address)": "8601b9e6"
    },
    "gasEstimates": {
        "creation": {
            "codeDepositCost": "94400",
            "executionCost": "infinite",
            "totalCost": "infinite"
        },
        "external": {
            "BASE()": "infinite",
            "Handler()": "2325",
            "purgeDeployer()": "26492",
            "setGenesisAddresses(address,address,address)": "infinite"
        }
    }
}