{
    "contractName": "PoolFactory",
    "abi": [
        {
            "inputs": [
                {
                    "internalType": "address",
                    "name": "_wbnb",
                    "type": "address"
                }
            ],
            "stateMutability": "nonpayable",
            "type": "constructor"
        },
        {
            "anonymous": false,
            "inputs": [
                {
                    "indexed": true,
                    "internalType": "address",
                    "name": "tokenA",
                    "type": "address"
                },
                {
                    "indexed": true,
                    "internalType": "address",
                    "name": "tokenB",
                    "type": "address"
                },
                {
                    "indexed": false,
                    "internalType": "address",
                    "name": "pool",
                    "type": "address"
                },
                {
                    "indexed": false,
                    "internalType": "uint256",
                    "name": "",
                    "type": "uint256"
                }
            ],
            "name": "PoolCreated",
            "type": "event"
        },
        {
            "inputs": [
                {
                    "internalType": "uint256",
                    "name": "",
                    "type": "uint256"
                }
            ],
            "name": "allPools",
            "outputs": [
                {
                    "internalType": "address",
                    "name": "",
                    "type": "address"
                }
            ],
            "stateMutability": "view",
            "type": "function"
        },
        {
            "inputs": [],
            "name": "allPoolsLength",
            "outputs": [
                {
                    "internalType": "uint256",
                    "name": "",
                    "type": "uint256"
                }
            ],
            "stateMutability": "view",
            "type": "function"
        },
        {
            "inputs": [
                {
                    "internalType": "uint256",
                    "name": "inputA",
                    "type": "uint256"
                },
                {
                    "internalType": "uint256",
                    "name": "inputB",
                    "type": "uint256"
                },
                {
                    "internalType": "address",
                    "name": "tokenA",
                    "type": "address"
                },
                {
                    "internalType": "address",
                    "name": "tokenB",
                    "type": "address"
                }
            ],
            "name": "createPool",
            "outputs": [
                {
                    "internalType": "address",
                    "name": "pool",
                    "type": "address"
                }
            ],
            "stateMutability": "payable",
            "type": "function"
        },
        {
            "inputs": [
                {
                    "internalType": "address",
                    "name": "",
                    "type": "address"
                },
                {
                    "internalType": "address",
                    "name": "",
                    "type": "address"
                }
            ],
            "name": "getPool",
            "outputs": [
                {
                    "internalType": "address",
                    "name": "",
                    "type": "address"
                }
            ],
            "stateMutability": "view",
            "type": "function"
        },
        {
            "inputs": [
                {
                    "internalType": "address",
                    "name": "",
                    "type": "address"
                }
            ],
            "name": "isPool",
            "outputs": [
                {
                    "internalType": "bool",
                    "name": "",
                    "type": "bool"
                }
            ],
            "stateMutability": "view",
            "type": "function"
        }
    ],
    "bytecode": "60a060405234801561001057600080fd5b5060405161199538038061199583398101604081905261002f91610040565b6001600160a01b0316608052610070565b60006020828403121561005257600080fd5b81516001600160a01b038116811461006957600080fd5b9392505050565b6080516118fc610099600039600081816101f0015281816104d2015261057401526118fc6000f3fe60806040526004361061004a5760003560e01c80633b175a8a1461004f57806341d1de971461007f578063531aa03e1461009f5780635b16ebb7146100dd578063efde4e641461011d575b600080fd5b61006261005d3660046106b6565b61013b565b6040516001600160a01b0390911681526020015b60405180910390f35b34801561008b57600080fd5b5061006261009a3660046106fc565b61047d565b3480156100ab57600080fd5b506100626100ba366004610715565b60006020818152928152604080822090935290815220546001600160a01b031681565b3480156100e957600080fd5b5061010d6100f8366004610748565b60016020526000908152604090205460ff1681565b6040519015158152602001610076565b34801561012957600080fd5b50600254604051908152602001610076565b6000816001600160a01b0316836001600160a01b031614156101b55760405162461bcd60e51b815260206004820152602860248201527f5370617274616e50726f746f63616c506f6f6c3a204944454e544943414c5f41604482015267444452455353455360c01b60648201526084015b60405180910390fd5b600080836001600160a01b0316856001600160a01b0316106101d85783856101db565b84845b90925090506001600160a01b038216610212577f000000000000000000000000000000000000000000000000000000000000000091505b6001600160a01b03828116600090815260208181526040808320858516845290915290205416156102855760405162461bcd60e51b815260206004820181905260248201527f5370617274616e50726f746f63616c506f6f6c3a20504f4f4c5f45584953545360448201526064016101ac565b6000604051806020016102979061068d565b601f1982820381018352601f9091011660408190526bffffffffffffffffffffffff19606086811b8216602084015285901b166034820152909150600090604801604051602081830303815290604052805190602001209050808251602084016000f560405163485cc95560e01b81526001600160a01b03868116600483015285811660248301529196509086169063485cc95590604401600060405180830381600087803b15801561034957600080fd5b505af115801561035d573d6000803e3d6000fd5b5050506001600160a01b03808616600081815260208181526040808320898616845282528083208054958c166001600160a01b031996871681179091558383528184209484529390915290208054909216179055506103bd878a876104a7565b6103c88689876104a7565b60028054600180820183557f405787fa12a823e0f2b7631cc41b3ba8828b3321ca811111fa75cd3aa3bb5ace90910180546001600160a01b0319166001600160a01b0389811691821790925560008181526020848152604091829020805460ff1916909517909455935484519182529281019290925285811692908716917febbbe9dc3a19d2f959ac76ac0372b4983cdfb945f5d6aef4873c36fabb2ba8aa910160405180910390a350505050949350505050565b6002818154811061048d57600080fd5b6000918252602090912001546001600160a01b0316905081565b600082116104b457600080fd5b6001600160a01b0383166105f7573482146104ce57600080fd5b60007f00000000000000000000000000000000000000000000000000000000000000006001600160a01b03168360405160006040518083038185875af1925050503d806000811461053b576040519150601f19603f3d011682016040523d82523d6000602084013e610540565b606091505b505090508061054e57600080fd5b60405163a9059cbb60e01b81526001600160a01b038381166004830152602482018590527f0000000000000000000000000000000000000000000000000000000000000000169063a9059cbb90604401602060405180830381600087803b1580156105b857600080fd5b505af11580156105cc573d6000803e3d6000fd5b505050506040513d601f19601f820116820180604052508101906105f0919061076a565b5050505050565b6040516323b872dd60e01b81523360048201526001600160a01b038281166024830152604482018490528416906323b872dd90606401602060405180830381600087803b15801561064757600080fd5b505af115801561065b573d6000803e3d6000fd5b505050506040513d601f19601f8201168201806040525081019061067f919061076a565b61068857600080fd5b505050565b61113a8061078d83390190565b80356001600160a01b03811681146106b157600080fd5b919050565b600080600080608085870312156106cc57600080fd5b84359350602085013592506106e36040860161069a565b91506106f16060860161069a565b905092959194509250565b60006020828403121561070e57600080fd5b5035919050565b6000806040838503121561072857600080fd5b6107318361069a565b915061073f6020840161069a565b90509250929050565b60006020828403121561075a57600080fd5b6107638261069a565b9392505050565b60006020828403121561077c57600080fd5b8151801515811461076357600080fdfe60a060405234801561001057600080fd5b50336080526080516110fc61003e600039600081816101fc015281816102e801526104eb01526110fc6000f3fe608060405234801561001057600080fd5b506004361061014d5760003560e01c80634f2be91f116100c3578063a457c2d71161007c578063a457c2d714610314578063a7f0b3de14610327578063a7f4377914610330578063a9059cbb14610337578063ba9a7a561461034a578063dd62ed3e1461035357600080fd5b80634f2be91f146102a357806370a08231146102aa5780638119c065146102a357806382bfefc8146102d3578063893d20e8146102e657806395d89b411461030c57600080fd5b80632dd31000116101155780632dd31000146101f7578063313ce56714610236578063395093511461025557806342966c68146102685780634800d97f1461027d578063485cc9551461029057600080fd5b806306fdde03146101525780630902f1ac14610170578063095ea7b3146101aa57806318160ddd146101cd57806323b872dd146101e4575b600080fd5b61015a61038c565b6040516101679190610d7b565b60405180910390f35b600254604080516fffffffffffffffffffffffffffffffff8084168252600160801b90930490921660208301524290820152606001610167565b6101bd6101b8366004610dca565b61041e565b6040519015158152602001610167565b6101d660055481565b604051908152602001610167565b6101bd6101f2366004610df4565b610434565b61021e7f000000000000000000000000000000000000000000000000000000000000000081565b6040516001600160a01b039091168152602001610167565b6003546102439060ff1681565b60405160ff9091168152602001610167565b6101bd610263366004610dca565b61049d565b61027b610276366004610e30565b6104d3565b005b60065461021e906001600160a01b031681565b61027b61029e366004610e49565b6104e0565b60006101d6565b6101d66102b8366004610e7c565b6001600160a01b031660009081526008602052604090205490565b60075461021e906001600160a01b031681565b7f000000000000000000000000000000000000000000000000000000000000000061021e565b61015a610846565b6101bd610322366004610dca565b610855565b6101d660045481565b60006101bd565b6101bd610345366004610dca565b6108a4565b6101d66103e881565b6101d6610361366004610e49565b6001600160a01b03918216600090815260096020908152604080832093909416825291909152205490565b60606000805461039b90610e97565b80601f01602080910402602001604051908101604052809291908181526020018280546103c790610e97565b80156104145780601f106103e957610100808354040283529160200191610414565b820191906000526020600020905b8154815290600101906020018083116103f757829003601f168201915b5050505050905090565b600061042b3384846108b1565b50600192915050565b60006104418484846109d6565b610493843361048e85604051806060016040528060288152602001611032602891396001600160a01b038a1660009081526009602090815260408083203384529091529020549190610b5c565b6108b1565b5060019392505050565b3360008181526009602090815260408083206001600160a01b0387168452909152812054909161042b91859061048e9086610b88565b6104dd3382610b9b565b50565b336001600160a01b037f0000000000000000000000000000000000000000000000000000000000000000161461055d5760405162461bcd60e51b815260206004820152601a60248201527f5350415254414e50524f544f434f4c3a20464f5242494444454e00000000000060448201526064015b60405180910390fd5b600680546001600160a01b038085166001600160a01b03199283168117909355600780549185169190921617905560408051808201825260148152730b54dc185c9d185b941c9bdd1bd8dbdb141bdbdb60621b6020808301919091528251808401845260048082526302d5350560e41b828401528451808601865260018152602f60f81b9381019390935284516306fdde0360e01b8152945193959194929391926306fdde039281830192600092829003018186803b15801561061f57600080fd5b505afa158015610633573d6000803e3d6000fd5b505050506040513d6000823e601f3d908101601f1916820160405261065b9190810190610ee8565b81856001600160a01b03166306fdde036040518163ffffffff1660e01b815260040160006040518083038186803b15801561069557600080fd5b505afa1580156106a9573d6000803e3d6000fd5b505050506040513d6000823e601f3d908101601f191682016040526106d19190810190610ee8565b856040516020016106e59493929190610f95565b60405160208183030381529060405260009080519060200190610709929190610cb2565b50846001600160a01b03166306fdde036040518163ffffffff1660e01b815260040160006040518083038186803b15801561074357600080fd5b505afa158015610757573d6000803e3d6000fd5b505050506040513d6000823e601f3d908101601f1916820160405261077f9190810190610ee8565b81856001600160a01b03166306fdde036040518163ffffffff1660e01b815260040160006040518083038186803b1580156107b957600080fd5b505afa1580156107cd573d6000803e3d6000fd5b505050506040513d6000823e601f3d908101601f191682016040526107f59190810190610ee8565b846040516020016108099493929190610f95565b6040516020818303038152906040526001908051906020019061082d929190610cb2565b50506003805460ff191660121790555050426004555050565b60606001805461039b90610e97565b600061042b338461048e85604051806060016040528060258152602001611080602591393360009081526009602090815260408083206001600160a01b038d1684529091529020549190610b5c565b600061042b3384846109d6565b6001600160a01b0383166109135760405162461bcd60e51b8152602060048201526024808201527f42455032303a20617070726f76652066726f6d20746865207a65726f206164646044820152637265737360e01b6064820152608401610554565b6001600160a01b0382166109745760405162461bcd60e51b815260206004820152602260248201527f42455032303a20617070726f766520746f20746865207a65726f206164647265604482015261737360f01b6064820152608401610554565b6001600160a01b0383811660008181526009602090815260408083209487168084529482529182902085905590518481527f8c5be1e5ebec7d5bd14f71427d1e84f3dd0314c0f7b2291e5b200ac8c7c3b92591015b60405180910390a3505050565b6001600160a01b038316610a3a5760405162461bcd60e51b815260206004820152602560248201527f42455032303a207472616e736665722066726f6d20746865207a65726f206164604482015264647265737360d81b6064820152608401610554565b6001600160a01b038216610a9c5760405162461bcd60e51b815260206004820152602360248201527f42455032303a207472616e7366657220746f20746865207a65726f206164647260448201526265737360e81b6064820152608401610554565b610ad98160405180606001604052806026815260200161105a602691396001600160a01b0386166000908152600860205260409020549190610b5c565b6001600160a01b038085166000908152600860205260408082209390935590841681522054610b089082610b88565b6001600160a01b0380841660008181526008602052604090819020939093559151908516907fddf252ad1be2c89b69c2b068fc378daa952ba7f163c4a11628f55a4df523b3ef906109c99085815260200190565b60008184841115610b805760405162461bcd60e51b81526004016105549190610d7b565b505050900390565b6000610b948284611002565b9392505050565b6001600160a01b038216610bfb5760405162461bcd60e51b815260206004820152602160248201527f42455032303a206275726e2066726f6d20746865207a65726f206164647265736044820152607360f81b6064820152608401610554565b610c38816040518060600160405280602281526020016110a5602291396001600160a01b0385166000908152600860205260409020549190610b5c565b6001600160a01b038316600090815260086020526040902055600554610c5e9082610ca6565b6005556040518181526000906001600160a01b038416907fddf252ad1be2c89b69c2b068fc378daa952ba7f163c4a11628f55a4df523b3ef9060200160405180910390a35050565b6000610b94828461101a565b828054610cbe90610e97565b90600052602060002090601f016020900481019282610ce05760008555610d26565b82601f10610cf957805160ff1916838001178555610d26565b82800160010185558215610d26579182015b82811115610d26578251825591602001919060010190610d0b565b50610d32929150610d36565b5090565b5b80821115610d325760008155600101610d37565b60005b83811015610d66578181015183820152602001610d4e565b83811115610d75576000848401525b50505050565b6020815260008251806020840152610d9a816040850160208701610d4b565b601f01601f19169190910160400192915050565b80356001600160a01b0381168114610dc557600080fd5b919050565b60008060408385031215610ddd57600080fd5b610de683610dae565b946020939093013593505050565b600080600060608486031215610e0957600080fd5b610e1284610dae565b9250610e2060208501610dae565b9150604084013590509250925092565b600060208284031215610e4257600080fd5b5035919050565b60008060408385031215610e5c57600080fd5b610e6583610dae565b9150610e7360208401610dae565b90509250929050565b600060208284031215610e8e57600080fd5b610b9482610dae565b600181811c90821680610eab57607f821691505b60208210811415610ecc57634e487b7160e01b600052602260045260246000fd5b50919050565b634e487b7160e01b600052604160045260246000fd5b600060208284031215610efa57600080fd5b815167ffffffffffffffff80821115610f1257600080fd5b818401915084601f830112610f2657600080fd5b815181811115610f3857610f38610ed2565b604051601f8201601f19908116603f01168101908382118183101715610f6057610f60610ed2565b81604052828152876020848701011115610f7957600080fd5b610f8a836020830160208801610d4b565b979650505050505050565b60008551610fa7818460208a01610d4b565b855190830190610fbb818360208a01610d4b565b8551910190610fce818360208901610d4b565b8451910190610fe1818360208801610d4b565b019695505050505050565b634e487b7160e01b600052601160045260246000fd5b6000821982111561101557611015610fec565b500190565b60008282101561102c5761102c610fec565b50039056fe42455032303a207472616e7366657220616d6f756e74206578636565647320616c6c6f77616e636542455032303a207472616e7366657220616d6f756e7420657863656564732062616c616e636542455032303a2064656372656173656420616c6c6f77616e63652062656c6f77207a65726f42455032303a206275726e20616d6f756e7420657863656564732062616c616e6365a2646970667358221220541cc2e72f35f7f480f7147bef2baa3a7001f5be5c0bf10496df4d40074d4a6164736f6c63430008090033a264697066735822122037a8a57b275d7bd7d1c78561afead65108c8c22785c791eacf93b500409aaca464736f6c63430008090033",
    "sourcePath": "c:/Users/User/Documents/SpartaDev/spartan-contracts/contracts/poolFactory.sol",
    "compiler": {
        "name": "solc",
        "version": "0.8.9+commit.e5eed63a"
    },
    "functionHashes": {
        "allPools(uint256)": "41d1de97",
        "allPoolsLength()": "efde4e64",
        "createPool(uint256,uint256,address,address)": "3b175a8a",
        "getPool(address,address)": "531aa03e",
        "isPool(address)": "5b16ebb7"
    },
    "gasEstimates": {
        "creation": {
            "codeDepositCost": "1279200",
            "executionCost": "infinite",
            "totalCost": "infinite"
        },
        "external": {
            "allPools(uint256)": "4603",
            "allPoolsLength()": "2346",
            "createPool(uint256,uint256,address,address)": "infinite",
            "getPool(address,address)": "infinite",
            "isPool(address)": "2575"
        },
        "internal": {
            "_handleTransferIn(address,uint256,address)": "infinite"
        }
    }
}