{
    "contractName": "RESERVE",
    "abi": [
        {
            "inputs": [
                {
                    "internalType": "address",
                    "name": "_base",
                    "type": "address"
                }
            ],
            "stateMutability": "nonpayable",
            "type": "constructor"
        },
        {
            "inputs": [],
            "name": "BASE",
            "outputs": [
                {
                    "internalType": "address",
                    "name": "",
                    "type": "address"
                }
            ],
            "stateMutability": "view",
            "type": "function"
        }
    ],
    "bytecode": "60a060405234801561001057600080fd5b5060405161012d38038061012d83398101604081905261002f91610040565b6001600160a01b0316608052610070565b60006020828403121561005257600080fd5b81516001600160a01b038116811461006957600080fd5b9392505050565b60805160a561008860003960006031015260a56000f3fe6080604052348015600f57600080fd5b506004361060285760003560e01c8063ec342ad014602d575b600080fd5b60537f000000000000000000000000000000000000000000000000000000000000000081565b6040516001600160a01b03909116815260200160405180910390f3fea26469706673582212203d24697867d72846126520ed12c83693740516ed9a995d63f2540f8dd25c011a64736f6c63430008090033",
    "sourcePath": "c:/Users/User/Documents/SpartaDev/spartan-contracts/contracts/RESERVE.sol",
    "compiler": {
        "name": "solc",
        "version": "0.8.9+commit.e5eed63a"
    },
    "functionHashes": {
        "BASE()": "ec342ad0"
    },
    "gasEstimates": {
        "creation": {
            "codeDepositCost": "33000",
            "executionCost": "infinite",
            "totalCost": "infinite"
        },
        "external": {
            "BASE()": "infinite"
        }
    }
}