{
    "contractName": "Sparta",
    "abi": [
        {
            "inputs": [
                {
                    "internalType": "address",
                    "name": "_baseV2",
                    "type": "address"
                }
            ],
            "stateMutability": "nonpayable",
            "type": "constructor"
        },
        {
            "anonymous": false,
            "inputs": [
                {
                    "indexed": true,
                    "internalType": "address",
                    "name": "owner",
                    "type": "address"
                },
                {
                    "indexed": true,
                    "internalType": "address",
                    "name": "spender",
                    "type": "address"
                },
                {
                    "indexed": false,
                    "internalType": "uint256",
                    "name": "value",
                    "type": "uint256"
                }
            ],
            "name": "Approval",
            "type": "event"
        },
        {
            "anonymous": false,
            "inputs": [
                {
                    "indexed": false,
                    "internalType": "uint256",
                    "name": "nextEraTime",
                    "type": "uint256"
                },
                {
                    "indexed": false,
                    "internalType": "uint256",
                    "name": "emission",
                    "type": "uint256"
                }
            ],
            "name": "NewEra",
            "type": "event"
        },
        {
            "anonymous": false,
            "inputs": [
                {
                    "indexed": true,
                    "internalType": "address",
                    "name": "from",
                    "type": "address"
                },
                {
                    "indexed": true,
                    "internalType": "address",
                    "name": "to",
                    "type": "address"
                },
                {
                    "indexed": false,
                    "internalType": "uint256",
                    "name": "value",
                    "type": "uint256"
                }
            ],
            "name": "Transfer",
            "type": "event"
        },
        {
            "inputs": [],
            "name": "BASEv2",
            "outputs": [
                {
                    "internalType": "address",
                    "name": "",
                    "type": "address"
                }
            ],
            "stateMutability": "view",
            "type": "function"
        },
        {
            "inputs": [],
            "name": "DEPLOYER",
            "outputs": [
                {
                    "internalType": "address",
                    "name": "",
                    "type": "address"
                }
            ],
            "stateMutability": "view",
            "type": "function"
        },
        {
            "inputs": [],
            "name": "HANDLER",
            "outputs": [
                {
                    "internalType": "address",
                    "name": "",
                    "type": "address"
                }
            ],
            "stateMutability": "view",
            "type": "function"
        },
        {
            "inputs": [
                {
                    "internalType": "address",
                    "name": "owner",
                    "type": "address"
                },
                {
                    "internalType": "address",
                    "name": "spender",
                    "type": "address"
                }
            ],
            "name": "allowance",
            "outputs": [
                {
                    "internalType": "uint256",
                    "name": "",
                    "type": "uint256"
                }
            ],
            "stateMutability": "view",
            "type": "function"
        },
        {
            "inputs": [
                {
                    "internalType": "address",
                    "name": "spender",
                    "type": "address"
                },
                {
                    "internalType": "uint256",
                    "name": "amount",
                    "type": "uint256"
                }
            ],
            "name": "approve",
            "outputs": [
                {
                    "internalType": "bool",
                    "name": "",
                    "type": "bool"
                }
            ],
            "stateMutability": "nonpayable",
            "type": "function"
        },
        {
            "inputs": [
                {
                    "internalType": "address",
                    "name": "account",
                    "type": "address"
                }
            ],
            "name": "balanceOf",
            "outputs": [
                {
                    "internalType": "uint256",
                    "name": "",
                    "type": "uint256"
                }
            ],
            "stateMutability": "view",
            "type": "function"
        },
        {
            "inputs": [
                {
                    "internalType": "uint256",
                    "name": "amount",
                    "type": "uint256"
                }
            ],
            "name": "burn",
            "outputs": [],
            "stateMutability": "nonpayable",
            "type": "function"
        },
        {
            "inputs": [
                {
                    "internalType": "address",
                    "name": "account",
                    "type": "address"
                },
                {
                    "internalType": "uint256",
                    "name": "amount",
                    "type": "uint256"
                }
            ],
            "name": "burnFrom",
            "outputs": [],
            "stateMutability": "nonpayable",
            "type": "function"
        },
        {
            "inputs": [
                {
                    "internalType": "address",
                    "name": "newHANDLER",
                    "type": "address"
                }
            ],
            "name": "changeHANDLER",
            "outputs": [],
            "stateMutability": "nonpayable",
            "type": "function"
        },
        {
            "inputs": [],
            "name": "decimals",
            "outputs": [
                {
                    "internalType": "uint8",
                    "name": "",
                    "type": "uint8"
                }
            ],
            "stateMutability": "view",
            "type": "function"
        },
        {
            "inputs": [
                {
                    "internalType": "address",
                    "name": "spender",
                    "type": "address"
                },
                {
                    "internalType": "uint256",
                    "name": "subtractedValue",
                    "type": "uint256"
                }
            ],
            "name": "decreaseAllowance",
            "outputs": [
                {
                    "internalType": "bool",
                    "name": "",
                    "type": "bool"
                }
            ],
            "stateMutability": "nonpayable",
            "type": "function"
        },
        {
            "inputs": [],
            "name": "emissionCurve",
            "outputs": [
                {
                    "internalType": "uint256",
                    "name": "",
                    "type": "uint256"
                }
            ],
            "stateMutability": "view",
            "type": "function"
        },
        {
            "inputs": [],
            "name": "emitting",
            "outputs": [
                {
                    "internalType": "bool",
                    "name": "",
                    "type": "bool"
                }
            ],
            "stateMutability": "view",
            "type": "function"
        },
        {
            "inputs": [],
            "name": "flipEmissions",
            "outputs": [],
            "stateMutability": "nonpayable",
            "type": "function"
        },
        {
            "inputs": [],
            "name": "flipMinting",
            "outputs": [],
            "stateMutability": "nonpayable",
            "type": "function"
        },
        {
            "inputs": [],
            "name": "getDailyEmission",
            "outputs": [
                {
                    "internalType": "uint256",
                    "name": "",
                    "type": "uint256"
                }
            ],
            "stateMutability": "view",
            "type": "function"
        },
        {
            "inputs": [],
            "name": "getOwner",
            "outputs": [
                {
                    "internalType": "address",
                    "name": "",
                    "type": "address"
                }
            ],
            "stateMutability": "view",
            "type": "function"
        },
        {
            "inputs": [
                {
                    "internalType": "address",
                    "name": "spender",
                    "type": "address"
                },
                {
                    "internalType": "uint256",
                    "name": "addedValue",
                    "type": "uint256"
                }
            ],
            "name": "increaseAllowance",
            "outputs": [
                {
                    "internalType": "bool",
                    "name": "",
                    "type": "bool"
                }
            ],
            "stateMutability": "nonpayable",
            "type": "function"
        },
        {
            "inputs": [],
            "name": "maxSupply",
            "outputs": [
                {
                    "internalType": "uint256",
                    "name": "",
                    "type": "uint256"
                }
            ],
            "stateMutability": "view",
            "type": "function"
        },
        {
            "inputs": [],
            "name": "migrate",
            "outputs": [],
            "stateMutability": "nonpayable",
            "type": "function"
        },
        {
            "inputs": [],
            "name": "minting",
            "outputs": [
                {
                    "internalType": "bool",
                    "name": "",
                    "type": "bool"
                }
            ],
            "stateMutability": "view",
            "type": "function"
        },
        {
            "inputs": [],
            "name": "name",
            "outputs": [
                {
                    "internalType": "string",
                    "name": "",
                    "type": "string"
                }
            ],
            "stateMutability": "view",
            "type": "function"
        },
        {
            "inputs": [],
            "name": "nextEraTime",
            "outputs": [
                {
                    "internalType": "uint256",
                    "name": "",
                    "type": "uint256"
                }
            ],
            "stateMutability": "view",
            "type": "function"
        },
        {
            "inputs": [],
            "name": "purgeDeployer",
            "outputs": [],
            "stateMutability": "nonpayable",
            "type": "function"
        },
        {
            "inputs": [],
            "name": "purgeHANDLER",
            "outputs": [],
            "stateMutability": "nonpayable",
            "type": "function"
        },
        {
            "inputs": [],
            "name": "secondsPerEra",
            "outputs": [
                {
                    "internalType": "uint256",
                    "name": "",
                    "type": "uint256"
                }
            ],
            "stateMutability": "view",
            "type": "function"
        },
        {
            "inputs": [
                {
                    "internalType": "uint256",
                    "name": "newTime",
                    "type": "uint256"
                },
                {
                    "internalType": "uint256",
                    "name": "newCurve",
                    "type": "uint256"
                }
            ],
            "name": "setParams",
            "outputs": [],
            "stateMutability": "nonpayable",
            "type": "function"
        },
        {
            "inputs": [],
            "name": "symbol",
            "outputs": [
                {
                    "internalType": "string",
                    "name": "",
                    "type": "string"
                }
            ],
            "stateMutability": "view",
            "type": "function"
        },
        {
            "inputs": [],
            "name": "totalSupply",
            "outputs": [
                {
                    "internalType": "uint256",
                    "name": "",
                    "type": "uint256"
                }
            ],
            "stateMutability": "view",
            "type": "function"
        },
        {
            "inputs": [
                {
                    "internalType": "address",
                    "name": "recipient",
                    "type": "address"
                },
                {
                    "internalType": "uint256",
                    "name": "amount",
                    "type": "uint256"
                }
            ],
            "name": "transfer",
            "outputs": [
                {
                    "internalType": "bool",
                    "name": "",
                    "type": "bool"
                }
            ],
            "stateMutability": "nonpayable",
            "type": "function"
        },
        {
            "inputs": [
                {
                    "internalType": "address",
                    "name": "sender",
                    "type": "address"
                },
                {
                    "internalType": "address",
                    "name": "recipient",
                    "type": "address"
                },
                {
                    "internalType": "uint256",
                    "name": "amount",
                    "type": "uint256"
                }
            ],
            "name": "transferFrom",
            "outputs": [
                {
                    "internalType": "bool",
                    "name": "",
                    "type": "bool"
                }
            ],
            "stateMutability": "nonpayable",
            "type": "function"
        }
    ],
    "bytecode": "60806040523480156200001157600080fd5b50604051620015ef380380620015ef83398101604081905262000034916200014c565b620000426012600a62000293565b62000052906305f5e100620002a4565b600555620000636012600a62000293565b62000073906311e1a300620002a4565b600655610800600455600a80546001600160a01b0319166001600160a01b038316179055620151806007819055620000ac9042620002c6565b600855600980546001600160a01b03191633179055620000cf6012600a62000293565b620000de9062989680620002a4565b33600090815260016020526040902055620000fc6012600a62000293565b6200010b90620f4240620002a4565b600081815560405191825233917fddf252ad1be2c89b69c2b068fc378daa952ba7f163c4a11628f55a4df523b3ef9060200160405180910390a350620002e1565b6000602082840312156200015f57600080fd5b81516001600160a01b03811681146200017757600080fd5b9392505050565b634e487b7160e01b600052601160045260246000fd5b600181815b80851115620001d5578160001904821115620001b957620001b96200017e565b80851615620001c757918102915b93841c939080029062000199565b509250929050565b600082620001ee575060016200028d565b81620001fd575060006200028d565b8160018114620002165760028114620002215762000241565b60019150506200028d565b60ff8411156200023557620002356200017e565b50506001821b6200028d565b5060208310610133831016604e8410600b841016171562000266575081810a6200028d565b62000272838362000194565b80600019048211156200028957620002896200017e565b0290505b92915050565b60006200017760ff841683620001dd565b6000816000190483118215151615620002c157620002c16200017e565b500290565b60008219821115620002dc57620002dc6200017e565b500190565b6112fe80620002f16000396000f3fe608060405234801561001057600080fd5b50600436106101e55760003560e01c80637dc2268c1161010f578063b768e4cd116100a2578063d5abeb0111610071578063d5abeb0114610431578063dd62ed3e1461043a578063f293e67514610473578063fe1fa8fa1461047b57600080fd5b8063b768e4cd146103e5578063b9a28994146103f8578063c0324c771461040b578063c1b8411a1461041e57600080fd5b80639a67759b116100de5780639a67759b146103ae578063a457c2d7146103b7578063a9059cbb146103ca578063b1b6a607146103dd57600080fd5b80637dc2268c14610366578063893d20e8146103735780638fd3ab801461038457806395d89b411461038c57600080fd5b80632deaa11611610187578063452f95e411610156578063452f95e4146102f65780636b92a3b61461032157806370a082311461032a57806379cc67901461035357600080fd5b80632deaa116146102ae578063313ce567146102b657806339509351146102d057806342966c68146102e357600080fd5b8063090bbb01116101c3578063090bbb0114610268578063095ea7b31461027f57806318160ddd1461029257806323b872dd1461029b57600080fd5b806303a82138146101ea57806306fdde03146101f45780630781f4d214610246575b600080fd5b6101f2610483565b005b6102306040518060400160405280601981526020017f5370617274616e2050726f746f636f6c20546f6b656e2056330000000000000081525081565b60405161023d9190611033565b60405180910390f35b60035461025890610100900460ff1681565b604051901515815260200161023d565b61027160085481565b60405190815260200161023d565b61025861028d36600461109d565b6104c8565b61027160005481565b6102586102a93660046110c9565b6104de565b6101f261059c565b6102be601281565b60405160ff909116815260200161023d565b6102586102de36600461109d565b6105da565b6101f26102f136600461110a565b610611565b600a54610309906001600160a01b031681565b6040516001600160a01b03909116815260200161023d565b61027160075481565b610271610338366004611123565b6001600160a01b031660009081526001602052604090205490565b6101f261036136600461109d565b61061e565b6003546102589060ff1681565b6009546001600160a01b0316610309565b6101f2610669565b6102306040518060400160405280600381526020016214d41560ea1b81525081565b61027160045481565b6102586103c536600461109d565b610893565b6102586103d836600461109d565b610906565b6101f2610913565b6101f26103f3366004611123565b61094f565b600b54610309906001600160a01b031681565b6101f2610419366004611147565b6109c1565b600954610309906001600160a01b031681565b61027160065481565b610271610448366004611169565b6001600160a01b03918216600090815260026020908152604080832093909416825291909152205490565b6102716109f6565b6101f2610a4d565b6009546001600160a01b031633146104b65760405162461bcd60e51b81526004016104ad906111a2565b60405180910390fd5b600980546001600160a01b0319169055565b60006104d5338484610a94565b50600192915050565b60006104eb848484610ba3565b6001600160a01b03841660009081526002602090815260408083203384529091529020546000191115610592576001600160a01b03841660009081526002602090815260408083203384529091529020548281101561057c5760405162461bcd60e51b815260206004820152600d60248201526c30b63637bbb0b731b29032b93960991b60448201526064016104ad565b610590853361058b86856111db565b610a94565b505b5060019392505050565b6009546001600160a01b031633146105c65760405162461bcd60e51b81526004016104ad906111a2565b6003805460ff19811660ff90911615179055565b3360008181526002602090815260408083206001600160a01b038716845290915281205490916104d591859061058b9086906111f2565b61061b3382610d3b565b50565b6001600160a01b038216600090815260026020908152604080832033845290915281205461064d9083906111db565b905061065a833383610a94565b6106648383610d3b565b505050565b600a546040516370a0823160e01b81523360048201526000916001600160a01b0316906370a082319060240160206040518083038186803b1580156106ad57600080fd5b505afa1580156106c1573d6000803e3d6000fd5b505050506040513d601f19601f820116820180604052508101906106e5919061120a565b604051636eb1769f60e11b8152336004820152306024820181905291925082919063dd62ed3e9060440160206040518083038186803b15801561072757600080fd5b505afa15801561073b573d6000803e3d6000fd5b505050506040513d601f19601f8201168201806040525081019061075f919061120a565b116107985760405162461bcd60e51b8152602060048201526009602482015268414c4c4f57414e434560b81b60448201526064016104ad565b600a546040516323b872dd60e01b8152336004820152306024820152604481018390526001600160a01b03909116906323b872dd90606401602060405180830381600087803b1580156107ea57600080fd5b505af11580156107fe573d6000803e3d6000fd5b505050506040513d601f19601f820116820180604052508101906108229190611223565b61082b57600080fd5b600a54604051630852cd8d60e31b8152600481018390526001600160a01b03909116906342966c6890602401600060405180830381600087803b15801561087157600080fd5b505af1158015610885573d6000803e3d6000fd5b5050505061061b3382610e42565b3360009081526002602090815260408083206001600160a01b0386168452909152812054828110156108f75760405162461bcd60e51b815260206004820152600d60248201526c30b63637bbb0b731b29032b93960991b60448201526064016104ad565b610592338561058b86856111db565b60006104d5338484610ba3565b6009546001600160a01b0316331461093d5760405162461bcd60e51b81526004016104ad906111a2565b600b80546001600160a01b0319169055565b6009546001600160a01b031633146109795760405162461bcd60e51b81526004016104ad906111a2565b6001600160a01b03811661099f5760405162461bcd60e51b81526004016104ad90611245565b600b80546001600160a01b0319166001600160a01b0392909216919091179055565b6009546001600160a01b031633146109eb5760405162461bcd60e51b81526004016104ad906111a2565b600791909155600455565b60008060055460005411610a2857600554600054600654610a17919061126a565b610a219190611289565b9050610a2d565b506006545b600454600054610a3d90836111db565b610a479190611289565b91505090565b6009546001600160a01b03163314610a775760405162461bcd60e51b81526004016104ad906111a2565b6003805461ff001981166101009182900460ff1615909102179055565b6001600160a01b038316610ad35760405162461bcd60e51b815260206004820152600660248201526539b2b73232b960d11b60448201526064016104ad565b6001600160a01b038216610b135760405162461bcd60e51b815260206004820152600760248201526639b832b73232b960c91b60448201526064016104ad565b6001600160a01b038084166000908152600260209081526040808320938616835292905220546000191115610664576001600160a01b0383811660008181526002602090815260408083209487168084529482529182902085905590518481527f8c5be1e5ebec7d5bd14f71427d1e84f3dd0314c0f7b2291e5b200ac8c7c3b925910160405180910390a3505050565b6001600160a01b038316610be85760405162461bcd60e51b815260206004820152600c60248201526b3a3930b739b332b91032b93960a11b60448201526064016104ad565b6001600160a01b038216301415610c2d5760405162461bcd60e51b81526020600482015260096024820152681c9958da5c1a595b9d60ba1b60448201526064016104ad565b6001600160a01b03831660009081526001602052604090205481811015610c845760405162461bcd60e51b815260206004820152600b60248201526a3130b630b731b29032b93960a91b60448201526064016104ad565b6001600160a01b03841660009081526001602052604081208054849290610cac9084906111db565b90915550506001600160a01b03831660009081526001602052604081208054849290610cd99084906111f2565b92505081905550826001600160a01b0316846001600160a01b03167fddf252ad1be2c89b69c2b068fc378daa952ba7f163c4a11628f55a4df523b3ef84604051610d2591815260200190565b60405180910390a3610d35610f26565b50505050565b6001600160a01b038216610d615760405162461bcd60e51b81526004016104ad90611245565b6001600160a01b038216600090815260016020526040902054811115610db75760405162461bcd60e51b815260206004820152600b60248201526a3130b630b731b29032b93960a91b60448201526064016104ad565b6001600160a01b03821660009081526001602052604081208054839290610ddf9084906111db565b9250508190555080600080828254610df791906111db565b90915550506040518181526000906001600160a01b038416907fddf252ad1be2c89b69c2b068fc378daa952ba7f163c4a11628f55a4df523b3ef906020015b60405180910390a35050565b6001600160a01b038216610e685760405162461bcd60e51b81526004016104ad90611245565b80600080828254610e7991906111f2565b90915550506006546000541115610ebb5760405162461bcd60e51b815260206004820152600660248201526513585e1e195960d21b60448201526064016104ad565b6001600160a01b03821660009081526001602052604081208054839290610ee39084906111f2565b90915550506040518181526001600160a01b038316906000907fddf252ad1be2c89b69c2b068fc378daa952ba7f163c4a11628f55a4df523b3ef90602001610e36565b6008544210158015610f3f5750600354610100900460ff165b15610faf57600754610f5190426111f2565b6008556000610f5e6109f6565b9050610f71610f6b610fb1565b82610e42565b60085460408051918252602082018390527fb46eeb115d9875d9d717a1b1dd704bc9a45fdeb55eecc9c6c4f777ffa5698fe5910160405180910390a1505b565b600b5460408051634e96621b60e11b815290516000926001600160a01b031691639d2cc436916004808301926020929190829003018186803b158015610ff657600080fd5b505afa15801561100a573d6000803e3d6000fd5b505050506040513d601f19601f8201168201806040525081019061102e91906112ab565b905090565b600060208083528351808285015260005b8181101561106057858101830151858201604001528201611044565b81811115611072576000604083870101525b50601f01601f1916929092016040019392505050565b6001600160a01b038116811461061b57600080fd5b600080604083850312156110b057600080fd5b82356110bb81611088565b946020939093013593505050565b6000806000606084860312156110de57600080fd5b83356110e981611088565b925060208401356110f981611088565b929592945050506040919091013590565b60006020828403121561111c57600080fd5b5035919050565b60006020828403121561113557600080fd5b813561114081611088565b9392505050565b6000806040838503121561115a57600080fd5b50508035926020909101359150565b6000806040838503121561117c57600080fd5b823561118781611088565b9150602083013561119781611088565b809150509250929050565b60208082526009908201526810a222a82627aca2a960b91b604082015260600190565b634e487b7160e01b600052601160045260246000fd5b6000828210156111ed576111ed6111c5565b500390565b60008219821115611205576112056111c5565b500190565b60006020828403121561121c57600080fd5b5051919050565b60006020828403121561123557600080fd5b8151801515811461114057600080fd5b6020808252600b908201526a30b2323932b9b99032b93960a91b604082015260600190565b6000816000190483118215151615611284576112846111c5565b500290565b6000826112a657634e487b7160e01b600052601260045260246000fd5b500490565b6000602082840312156112bd57600080fd5b81516111408161108856fea2646970667358221220ea2eabb709ad7625435e5f9928f130c9b68ad705d1d5a09016f8d15679a9011464736f6c63430008090033",
    "sourcePath": "c:/Users/User/Documents/SpartaDev/spartan-contracts/contracts/Sparta.sol",
    "compiler": {
        "name": "solc",
        "version": "0.8.9+commit.e5eed63a"
    },
    "functionHashes": {
        "BASEv2()": "452f95e4",
        "DEPLOYER()": "c1b8411a",
        "HANDLER()": "b9a28994",
        "allowance(address,address)": "dd62ed3e",
        "approve(address,uint256)": "095ea7b3",
        "balanceOf(address)": "70a08231",
        "burn(uint256)": "42966c68",
        "burnFrom(address,uint256)": "79cc6790",
        "changeHANDLER(address)": "b768e4cd",
        "decimals()": "313ce567",
        "decreaseAllowance(address,uint256)": "a457c2d7",
        "emissionCurve()": "9a67759b",
        "emitting()": "0781f4d2",
        "flipEmissions()": "fe1fa8fa",
        "flipMinting()": "2deaa116",
        "getDailyEmission()": "f293e675",
        "getOwner()": "893d20e8",
        "increaseAllowance(address,uint256)": "39509351",
        "maxSupply()": "d5abeb01",
        "migrate()": "8fd3ab80",
        "minting()": "7dc2268c",
        "name()": "06fdde03",
        "nextEraTime()": "090bbb01",
        "purgeDeployer()": "03a82138",
        "purgeHANDLER()": "b1b6a607",
        "secondsPerEra()": "6b92a3b6",
        "setParams(uint256,uint256)": "c0324c77",
        "symbol()": "95d89b41",
        "totalSupply()": "18160ddd",
        "transfer(address,uint256)": "a9059cbb",
        "transferFrom(address,address,uint256)": "23b872dd"
    },
    "gasEstimates": {
        "creation": {
            "codeDepositCost": "972400",
            "executionCost": "infinite",
            "totalCost": "infinite"
        },
        "external": {
            "BASEv2()": "2382",
            "DEPLOYER()": "2448",
            "HANDLER()": "2404",
            "allowance(address,address)": "infinite",
            "approve(address,uint256)": "26951",
            "balanceOf(address)": "2620",
            "burn(uint256)": "infinite",
            "burnFrom(address,uint256)": "infinite",
            "changeHANDLER(address)": "26785",
            "decimals()": "272",
            "decreaseAllowance(address,uint256)": "29300",
            "emissionCurve()": "2340",
            "emitting()": "2412",
            "flipEmissions()": "26655",
            "flipMinting()": "26569",
            "getDailyEmission()": "infinite",
            "getOwner()": "2399",
            "increaseAllowance(address,uint256)": "29311",
            "maxSupply()": "2339",
            "migrate()": "infinite",
            "minting()": "2356",
            "name()": "infinite",
            "nextEraTime()": "2341",
            "purgeDeployer()": "26561",
            "purgeHANDLER()": "26625",
            "secondsPerEra()": "2362",
            "setParams(uint256,uint256)": "46688",
            "symbol()": "infinite",
            "totalSupply()": "2385",
            "transfer(address,uint256)": "infinite",
            "transferFrom(address,address,uint256)": "infinite"
        },
        "internal": {
            "RESERVE()": "infinite",
            "_approve(address,address,uint256)": "infinite",
            "_burn(address,uint256)": "infinite",
            "_checkEmission()": "infinite",
            "_mint(address,uint256)": "infinite",
            "_transfer(address,address,uint256)": "infinite"
        }
    }
}