{
    "contractName": "SPARTANPROTCOLPOOL",
    "abi": [
        {
            "inputs": [],
            "stateMutability": "nonpayable",
            "type": "constructor"
        },
        {
            "anonymous": false,
            "inputs": [
                {
                    "indexed": true,
                    "internalType": "address",
                    "name": "owner",
                    "type": "address"
                },
                {
                    "indexed": true,
                    "internalType": "address",
                    "name": "spender",
                    "type": "address"
                },
                {
                    "indexed": false,
                    "internalType": "uint256",
                    "name": "value",
                    "type": "uint256"
                }
            ],
            "name": "Approval",
            "type": "event"
        },
        {
            "anonymous": false,
            "inputs": [
                {
                    "indexed": true,
                    "internalType": "address",
                    "name": "from",
                    "type": "address"
                },
                {
                    "indexed": true,
                    "internalType": "address",
                    "name": "to",
                    "type": "address"
                },
                {
                    "indexed": false,
                    "internalType": "uint256",
                    "name": "value",
                    "type": "uint256"
                }
            ],
            "name": "Transfer",
            "type": "event"
        },
        {
            "inputs": [],
            "name": "ASSET",
            "outputs": [
                {
                    "internalType": "address",
                    "name": "",
                    "type": "address"
                }
            ],
            "stateMutability": "view",
            "type": "function"
        },
        {
            "inputs": [],
            "name": "FACTORY",
            "outputs": [
                {
                    "internalType": "address",
                    "name": "",
                    "type": "address"
                }
            ],
            "stateMutability": "view",
            "type": "function"
        },
        {
            "inputs": [],
            "name": "MINIMUM_LIQUIDITY",
            "outputs": [
                {
                    "internalType": "uint256",
                    "name": "",
                    "type": "uint256"
                }
            ],
            "stateMutability": "view",
            "type": "function"
        },
        {
            "inputs": [],
            "name": "TOKEN",
            "outputs": [
                {
                    "internalType": "address",
                    "name": "",
                    "type": "address"
                }
            ],
            "stateMutability": "view",
            "type": "function"
        },
        {
            "inputs": [],
            "name": "add",
            "outputs": [
                {
                    "internalType": "uint256",
                    "name": "",
                    "type": "uint256"
                }
            ],
            "stateMutability": "nonpayable",
            "type": "function"
        },
        {
            "inputs": [
                {
                    "internalType": "address",
                    "name": "owner",
                    "type": "address"
                },
                {
                    "internalType": "address",
                    "name": "spender",
                    "type": "address"
                }
            ],
            "name": "allowance",
            "outputs": [
                {
                    "internalType": "uint256",
                    "name": "",
                    "type": "uint256"
                }
            ],
            "stateMutability": "view",
            "type": "function"
        },
        {
            "inputs": [
                {
                    "internalType": "address",
                    "name": "spender",
                    "type": "address"
                },
                {
                    "internalType": "uint256",
                    "name": "amount",
                    "type": "uint256"
                }
            ],
            "name": "approve",
            "outputs": [
                {
                    "internalType": "bool",
                    "name": "",
                    "type": "bool"
                }
            ],
            "stateMutability": "nonpayable",
            "type": "function"
        },
        {
            "inputs": [
                {
                    "internalType": "address",
                    "name": "account",
                    "type": "address"
                }
            ],
            "name": "balanceOf",
            "outputs": [
                {
                    "internalType": "uint256",
                    "name": "",
                    "type": "uint256"
                }
            ],
            "stateMutability": "view",
            "type": "function"
        },
        {
            "inputs": [
                {
                    "internalType": "uint256",
                    "name": "amount",
                    "type": "uint256"
                }
            ],
            "name": "burn",
            "outputs": [],
            "stateMutability": "nonpayable",
            "type": "function"
        },
        {
            "inputs": [],
            "name": "decimals",
            "outputs": [
                {
                    "internalType": "uint8",
                    "name": "",
                    "type": "uint8"
                }
            ],
            "stateMutability": "view",
            "type": "function"
        },
        {
            "inputs": [
                {
                    "internalType": "address",
                    "name": "spender",
                    "type": "address"
                },
                {
                    "internalType": "uint256",
                    "name": "subtractedValue",
                    "type": "uint256"
                }
            ],
            "name": "decreaseAllowance",
            "outputs": [
                {
                    "internalType": "bool",
                    "name": "",
                    "type": "bool"
                }
            ],
            "stateMutability": "nonpayable",
            "type": "function"
        },
        {
            "inputs": [],
            "name": "genesis",
            "outputs": [
                {
                    "internalType": "uint256",
                    "name": "",
                    "type": "uint256"
                }
            ],
            "stateMutability": "view",
            "type": "function"
        },
        {
            "inputs": [],
            "name": "getOwner",
            "outputs": [
                {
                    "internalType": "address",
                    "name": "",
                    "type": "address"
                }
            ],
            "stateMutability": "view",
            "type": "function"
        },
        {
            "inputs": [],
            "name": "getReserves",
            "outputs": [
                {
                    "internalType": "uint256",
                    "name": "_tokenDepth",
                    "type": "uint256"
                },
                {
                    "internalType": "uint256",
                    "name": "_assetDepth",
                    "type": "uint256"
                },
                {
                    "internalType": "uint256",
                    "name": "_blockTimestampLast",
                    "type": "uint256"
                }
            ],
            "stateMutability": "view",
            "type": "function"
        },
        {
            "inputs": [
                {
                    "internalType": "address",
                    "name": "spender",
                    "type": "address"
                },
                {
                    "internalType": "uint256",
                    "name": "addedValue",
                    "type": "uint256"
                }
            ],
            "name": "increaseAllowance",
            "outputs": [
                {
                    "internalType": "bool",
                    "name": "",
                    "type": "bool"
                }
            ],
            "stateMutability": "nonpayable",
            "type": "function"
        },
        {
            "inputs": [
                {
                    "internalType": "address",
                    "name": "_token0",
                    "type": "address"
                },
                {
                    "internalType": "address",
                    "name": "_token1",
                    "type": "address"
                }
            ],
            "name": "initialize",
            "outputs": [],
            "stateMutability": "nonpayable",
            "type": "function"
        },
        {
            "inputs": [],
            "name": "name",
            "outputs": [
                {
                    "internalType": "string",
                    "name": "",
                    "type": "string"
                }
            ],
            "stateMutability": "view",
            "type": "function"
        },
        {
            "inputs": [],
            "name": "remove",
            "outputs": [
                {
                    "internalType": "bool",
                    "name": "",
                    "type": "bool"
                }
            ],
            "stateMutability": "nonpayable",
            "type": "function"
        },
        {
            "inputs": [],
            "name": "swap",
            "outputs": [
                {
                    "internalType": "uint256",
                    "name": "",
                    "type": "uint256"
                }
            ],
            "stateMutability": "nonpayable",
            "type": "function"
        },
        {
            "inputs": [],
            "name": "symbol",
            "outputs": [
                {
                    "internalType": "string",
                    "name": "",
                    "type": "string"
                }
            ],
            "stateMutability": "view",
            "type": "function"
        },
        {
            "inputs": [],
            "name": "totalSupply",
            "outputs": [
                {
                    "internalType": "uint256",
                    "name": "",
                    "type": "uint256"
                }
            ],
            "stateMutability": "view",
            "type": "function"
        },
        {
            "inputs": [
                {
                    "internalType": "address",
                    "name": "recipient",
                    "type": "address"
                },
                {
                    "internalType": "uint256",
                    "name": "amount",
                    "type": "uint256"
                }
            ],
            "name": "transfer",
            "outputs": [
                {
                    "internalType": "bool",
                    "name": "",
                    "type": "bool"
                }
            ],
            "stateMutability": "nonpayable",
            "type": "function"
        },
        {
            "inputs": [
                {
                    "internalType": "address",
                    "name": "sender",
                    "type": "address"
                },
                {
                    "internalType": "address",
                    "name": "recipient",
                    "type": "address"
                },
                {
                    "internalType": "uint256",
                    "name": "amount",
                    "type": "uint256"
                }
            ],
            "name": "transferFrom",
            "outputs": [
                {
                    "internalType": "bool",
                    "name": "",
                    "type": "bool"
                }
            ],
            "stateMutability": "nonpayable",
            "type": "function"
        }
    ],
    "bytecode": "60a060405234801561001057600080fd5b50336080526080516110fc61003e600039600081816101fc015281816102e801526104eb01526110fc6000f3fe608060405234801561001057600080fd5b506004361061014d5760003560e01c80634f2be91f116100c3578063a457c2d71161007c578063a457c2d714610314578063a7f0b3de14610327578063a7f4377914610330578063a9059cbb14610337578063ba9a7a561461034a578063dd62ed3e1461035357600080fd5b80634f2be91f146102a357806370a08231146102aa5780638119c065146102a357806382bfefc8146102d3578063893d20e8146102e657806395d89b411461030c57600080fd5b80632dd31000116101155780632dd31000146101f7578063313ce56714610236578063395093511461025557806342966c68146102685780634800d97f1461027d578063485cc9551461029057600080fd5b806306fdde03146101525780630902f1ac14610170578063095ea7b3146101aa57806318160ddd146101cd57806323b872dd146101e4575b600080fd5b61015a61038c565b6040516101679190610d7b565b60405180910390f35b600254604080516fffffffffffffffffffffffffffffffff8084168252600160801b90930490921660208301524290820152606001610167565b6101bd6101b8366004610dca565b61041e565b6040519015158152602001610167565b6101d660055481565b604051908152602001610167565b6101bd6101f2366004610df4565b610434565b61021e7f000000000000000000000000000000000000000000000000000000000000000081565b6040516001600160a01b039091168152602001610167565b6003546102439060ff1681565b60405160ff9091168152602001610167565b6101bd610263366004610dca565b61049d565b61027b610276366004610e30565b6104d3565b005b60065461021e906001600160a01b031681565b61027b61029e366004610e49565b6104e0565b60006101d6565b6101d66102b8366004610e7c565b6001600160a01b031660009081526008602052604090205490565b60075461021e906001600160a01b031681565b7f000000000000000000000000000000000000000000000000000000000000000061021e565b61015a610846565b6101bd610322366004610dca565b610855565b6101d660045481565b60006101bd565b6101bd610345366004610dca565b6108a4565b6101d66103e881565b6101d6610361366004610e49565b6001600160a01b03918216600090815260096020908152604080832093909416825291909152205490565b60606000805461039b90610e97565b80601f01602080910402602001604051908101604052809291908181526020018280546103c790610e97565b80156104145780601f106103e957610100808354040283529160200191610414565b820191906000526020600020905b8154815290600101906020018083116103f757829003601f168201915b5050505050905090565b600061042b3384846108b1565b50600192915050565b60006104418484846109d6565b610493843361048e85604051806060016040528060288152602001611032602891396001600160a01b038a1660009081526009602090815260408083203384529091529020549190610b5c565b6108b1565b5060019392505050565b3360008181526009602090815260408083206001600160a01b0387168452909152812054909161042b91859061048e9086610b88565b6104dd3382610b9b565b50565b336001600160a01b037f0000000000000000000000000000000000000000000000000000000000000000161461055d5760405162461bcd60e51b815260206004820152601a60248201527f5350415254414e50524f544f434f4c3a20464f5242494444454e00000000000060448201526064015b60405180910390fd5b600680546001600160a01b038085166001600160a01b03199283168117909355600780549185169190921617905560408051808201825260148152730b54dc185c9d185b941c9bdd1bd8dbdb141bdbdb60621b6020808301919091528251808401845260048082526302d5350560e41b828401528451808601865260018152602f60f81b9381019390935284516306fdde0360e01b8152945193959194929391926306fdde039281830192600092829003018186803b15801561061f57600080fd5b505afa158015610633573d6000803e3d6000fd5b505050506040513d6000823e601f3d908101601f1916820160405261065b9190810190610ee8565b81856001600160a01b03166306fdde036040518163ffffffff1660e01b815260040160006040518083038186803b15801561069557600080fd5b505afa1580156106a9573d6000803e3d6000fd5b505050506040513d6000823e601f3d908101601f191682016040526106d19190810190610ee8565b856040516020016106e59493929190610f95565b60405160208183030381529060405260009080519060200190610709929190610cb2565b50846001600160a01b03166306fdde036040518163ffffffff1660e01b815260040160006040518083038186803b15801561074357600080fd5b505afa158015610757573d6000803e3d6000fd5b505050506040513d6000823e601f3d908101601f1916820160405261077f9190810190610ee8565b81856001600160a01b03166306fdde036040518163ffffffff1660e01b815260040160006040518083038186803b1580156107b957600080fd5b505afa1580156107cd573d6000803e3d6000fd5b505050506040513d6000823e601f3d908101601f191682016040526107f59190810190610ee8565b846040516020016108099493929190610f95565b6040516020818303038152906040526001908051906020019061082d929190610cb2565b50506003805460ff191660121790555050426004555050565b60606001805461039b90610e97565b600061042b338461048e85604051806060016040528060258152602001611080602591393360009081526009602090815260408083206001600160a01b038d1684529091529020549190610b5c565b600061042b3384846109d6565b6001600160a01b0383166109135760405162461bcd60e51b8152602060048201526024808201527f42455032303a20617070726f76652066726f6d20746865207a65726f206164646044820152637265737360e01b6064820152608401610554565b6001600160a01b0382166109745760405162461bcd60e51b815260206004820152602260248201527f42455032303a20617070726f766520746f20746865207a65726f206164647265604482015261737360f01b6064820152608401610554565b6001600160a01b0383811660008181526009602090815260408083209487168084529482529182902085905590518481527f8c5be1e5ebec7d5bd14f71427d1e84f3dd0314c0f7b2291e5b200ac8c7c3b92591015b60405180910390a3505050565b6001600160a01b038316610a3a5760405162461bcd60e51b815260206004820152602560248201527f42455032303a207472616e736665722066726f6d20746865207a65726f206164604482015264647265737360d81b6064820152608401610554565b6001600160a01b038216610a9c5760405162461bcd60e51b815260206004820152602360248201527f42455032303a207472616e7366657220746f20746865207a65726f206164647260448201526265737360e81b6064820152608401610554565b610ad98160405180606001604052806026815260200161105a602691396001600160a01b0386166000908152600860205260409020549190610b5c565b6001600160a01b038085166000908152600860205260408082209390935590841681522054610b089082610b88565b6001600160a01b0380841660008181526008602052604090819020939093559151908516907fddf252ad1be2c89b69c2b068fc378daa952ba7f163c4a11628f55a4df523b3ef906109c99085815260200190565b60008184841115610b805760405162461bcd60e51b81526004016105549190610d7b565b505050900390565b6000610b948284611002565b9392505050565b6001600160a01b038216610bfb5760405162461bcd60e51b815260206004820152602160248201527f42455032303a206275726e2066726f6d20746865207a65726f206164647265736044820152607360f81b6064820152608401610554565b610c38816040518060600160405280602281526020016110a5602291396001600160a01b0385166000908152600860205260409020549190610b5c565b6001600160a01b038316600090815260086020526040902055600554610c5e9082610ca6565b6005556040518181526000906001600160a01b038416907fddf252ad1be2c89b69c2b068fc378daa952ba7f163c4a11628f55a4df523b3ef9060200160405180910390a35050565b6000610b94828461101a565b828054610cbe90610e97565b90600052602060002090601f016020900481019282610ce05760008555610d26565b82601f10610cf957805160ff1916838001178555610d26565b82800160010185558215610d26579182015b82811115610d26578251825591602001919060010190610d0b565b50610d32929150610d36565b5090565b5b80821115610d325760008155600101610d37565b60005b83811015610d66578181015183820152602001610d4e565b83811115610d75576000848401525b50505050565b6020815260008251806020840152610d9a816040850160208701610d4b565b601f01601f19169190910160400192915050565b80356001600160a01b0381168114610dc557600080fd5b919050565b60008060408385031215610ddd57600080fd5b610de683610dae565b946020939093013593505050565b600080600060608486031215610e0957600080fd5b610e1284610dae565b9250610e2060208501610dae565b9150604084013590509250925092565b600060208284031215610e4257600080fd5b5035919050565b60008060408385031215610e5c57600080fd5b610e6583610dae565b9150610e7360208401610dae565b90509250929050565b600060208284031215610e8e57600080fd5b610b9482610dae565b600181811c90821680610eab57607f821691505b60208210811415610ecc57634e487b7160e01b600052602260045260246000fd5b50919050565b634e487b7160e01b600052604160045260246000fd5b600060208284031215610efa57600080fd5b815167ffffffffffffffff80821115610f1257600080fd5b818401915084601f830112610f2657600080fd5b815181811115610f3857610f38610ed2565b604051601f8201601f19908116603f01168101908382118183101715610f6057610f60610ed2565b81604052828152876020848701011115610f7957600080fd5b610f8a836020830160208801610d4b565b979650505050505050565b60008551610fa7818460208a01610d4b565b855190830190610fbb818360208a01610d4b565b8551910190610fce818360208901610d4b565b8451910190610fe1818360208801610d4b565b019695505050505050565b634e487b7160e01b600052601160045260246000fd5b6000821982111561101557611015610fec565b500190565b60008282101561102c5761102c610fec565b50039056fe42455032303a207472616e7366657220616d6f756e74206578636565647320616c6c6f77616e636542455032303a207472616e7366657220616d6f756e7420657863656564732062616c616e636542455032303a2064656372656173656420616c6c6f77616e63652062656c6f77207a65726f42455032303a206275726e20616d6f756e7420657863656564732062616c616e6365a2646970667358221220541cc2e72f35f7f480f7147bef2baa3a7001f5be5c0bf10496df4d40074d4a6164736f6c63430008090033",
    "sourcePath": "c:/Users/User/Documents/SpartaDev/spartan-contracts/contracts/SPARTANPROTCOLPOOL.sol",
    "compiler": {
        "name": "solc",
        "version": "0.8.9+commit.e5eed63a"
    },
    "functionHashes": {
        "ASSET()": "4800d97f",
        "FACTORY()": "2dd31000",
        "MINIMUM_LIQUIDITY()": "ba9a7a56",
        "TOKEN()": "82bfefc8",
        "add()": "4f2be91f",
        "allowance(address,address)": "dd62ed3e",
        "approve(address,uint256)": "095ea7b3",
        "balanceOf(address)": "70a08231",
        "burn(uint256)": "42966c68",
        "decimals()": "313ce567",
        "decreaseAllowance(address,uint256)": "a457c2d7",
        "genesis()": "a7f0b3de",
        "getOwner()": "893d20e8",
        "getReserves()": "0902f1ac",
        "increaseAllowance(address,uint256)": "39509351",
        "initialize(address,address)": "485cc955",
        "name()": "06fdde03",
        "remove()": "a7f43779",
        "swap()": "8119c065",
        "symbol()": "95d89b41",
        "totalSupply()": "18160ddd",
        "transfer(address,uint256)": "a9059cbb",
        "transferFrom(address,address,uint256)": "23b872dd"
    },
    "gasEstimates": {
        "creation": {
            "codeDepositCost": "869600",
            "executionCost": "infinite",
            "totalCost": "infinite"
        },
        "external": {
            "ASSET()": "2448",
            "FACTORY()": "infinite",
            "MINIMUM_LIQUIDITY()": "305",
            "TOKEN()": "2426",
            "add()": "215",
            "allowance(address,address)": "infinite",
            "approve(address,uint256)": "24665",
            "balanceOf(address)": "2582",
            "burn(uint256)": "infinite",
            "decimals()": "2358",
            "decreaseAllowance(address,uint256)": "infinite",
            "genesis()": "2339",
            "getOwner()": "infinite",
            "getReserves()": "2399",
            "increaseAllowance(address,uint256)": "27044",
            "initialize(address,address)": "infinite",
            "name()": "infinite",
            "remove()": "264",
            "swap()": "259",
            "symbol()": "infinite",
            "totalSupply()": "2385",
            "transfer(address,uint256)": "infinite",
            "transferFrom(address,address,uint256)": "infinite"
        },
        "internal": {
            "_approve(address,address,uint256)": "infinite",
            "_burn(address,uint256)": "infinite",
            "_burnFrom(address,uint256)": "infinite",
            "_checkAssetDepth()": "infinite",
            "_checkTokenDepth()": "infinite",
            "_mint(address,uint256)": "infinite",
            "_safeTransfer(address,address,uint256)": "infinite",
            "_transfer(address,address,uint256)": "infinite"
        }
    }
}