{
  "_format": "hh-sol-artifact-1",
  "contractName": "MockBEP20",
  "sourceName": "contracts/UTILS/MockBEP20.sol",
  "abi": [
    {
      "inputs": [
        {
          "internalType": "string",
          "name": "namee",
          "type": "string"
        },
        {
          "internalType": "string",
          "name": "symboll",
          "type": "string"
        },
        {
          "internalType": "uint256",
          "name": "supplyy",
          "type": "uint256"
        }
      ],
      "stateMutability": "nonpayable",
      "type": "constructor"
    },
    {
      "anonymous": false,
      "inputs": [
        {
          "indexed": true,
          "internalType": "address",
          "name": "owner",
          "type": "address"
        },
        {
          "indexed": true,
          "internalType": "address",
          "name": "spender",
          "type": "address"
        },
        {
          "indexed": false,
          "internalType": "uint256",
          "name": "value",
          "type": "uint256"
        }
      ],
      "name": "Approval",
      "type": "event"
    },
    {
      "anonymous": false,
      "inputs": [
        {
          "indexed": true,
          "internalType": "address",
          "name": "from",
          "type": "address"
        },
        {
          "indexed": true,
          "internalType": "address",
          "name": "to",
          "type": "address"
        },
        {
          "indexed": false,
          "internalType": "uint256",
          "name": "value",
          "type": "uint256"
        }
      ],
      "name": "Transfer",
      "type": "event"
    },
    {
      "inputs": [],
      "name": "DEPLOYER",
      "outputs": [
        {
          "internalType": "address",
          "name": "",
          "type": "address"
        }
      ],
      "stateMutability": "view",
      "type": "function"
    },
    {
      "inputs": [
        {
          "internalType": "address",
          "name": "owner",
          "type": "address"
        },
        {
          "internalType": "address",
          "name": "spender",
          "type": "address"
        }
      ],
      "name": "allowance",
      "outputs": [
        {
          "internalType": "uint256",
          "name": "",
          "type": "uint256"
        }
      ],
      "stateMutability": "view",
      "type": "function"
    },
    {
      "inputs": [
        {
          "internalType": "address",
          "name": "spender",
          "type": "address"
        },
        {
          "internalType": "uint256",
          "name": "amount",
          "type": "uint256"
        }
      ],
      "name": "approve",
      "outputs": [
        {
          "internalType": "bool",
          "name": "",
          "type": "bool"
        }
      ],
      "stateMutability": "nonpayable",
      "type": "function"
    },
    {
      "inputs": [
        {
          "internalType": "address",
          "name": "account",
          "type": "address"
        }
      ],
      "name": "balanceOf",
      "outputs": [
        {
          "internalType": "uint256",
          "name": "",
          "type": "uint256"
        }
      ],
      "stateMutability": "view",
      "type": "function"
    },
    {
      "inputs": [
        {
          "internalType": "uint256",
          "name": "amount",
          "type": "uint256"
        }
      ],
      "name": "burn",
      "outputs": [],
      "stateMutability": "nonpayable",
      "type": "function"
    },
    {
      "inputs": [
        {
          "internalType": "address",
          "name": "account",
          "type": "address"
        },
        {
          "internalType": "uint256",
          "name": "amount",
          "type": "uint256"
        }
      ],
      "name": "burnFrom",
      "outputs": [],
      "stateMutability": "nonpayable",
      "type": "function"
    },
    {
      "inputs": [],
      "name": "decimals",
      "outputs": [
        {
          "internalType": "uint8",
          "name": "",
          "type": "uint8"
        }
      ],
      "stateMutability": "view",
      "type": "function"
    },
    {
      "inputs": [
        {
          "internalType": "address",
          "name": "spender",
          "type": "address"
        },
        {
          "internalType": "uint256",
          "name": "subtractedValue",
          "type": "uint256"
        }
      ],
      "name": "decreaseAllowance",
      "outputs": [
        {
          "internalType": "bool",
          "name": "",
          "type": "bool"
        }
      ],
      "stateMutability": "nonpayable",
      "type": "function"
    },
    {
      "inputs": [],
      "name": "getOwner",
      "outputs": [
        {
          "internalType": "address",
          "name": "",
          "type": "address"
        }
      ],
      "stateMutability": "view",
      "type": "function"
    },
    {
      "inputs": [
        {
          "internalType": "address",
          "name": "spender",
          "type": "address"
        },
        {
          "internalType": "uint256",
          "name": "addedValue",
          "type": "uint256"
        }
      ],
      "name": "increaseAllowance",
      "outputs": [
        {
          "internalType": "bool",
          "name": "",
          "type": "bool"
        }
      ],
      "stateMutability": "nonpayable",
      "type": "function"
    },
    {
      "inputs": [
        {
          "internalType": "uint256",
          "name": "_amount",
          "type": "uint256"
        }
      ],
      "name": "mintTokens",
      "outputs": [],
      "stateMutability": "nonpayable",
      "type": "function"
    },
    {
      "inputs": [],
      "name": "name",
      "outputs": [
        {
          "internalType": "string",
          "name": "",
          "type": "string"
        }
      ],
      "stateMutability": "view",
      "type": "function"
    },
    {
      "inputs": [],
      "name": "symbol",
      "outputs": [
        {
          "internalType": "string",
          "name": "",
          "type": "string"
        }
      ],
      "stateMutability": "view",
      "type": "function"
    },
    {
      "inputs": [],
      "name": "totalSupply",
      "outputs": [
        {
          "internalType": "uint256",
          "name": "",
          "type": "uint256"
        }
      ],
      "stateMutability": "view",
      "type": "function"
    },
    {
      "inputs": [
        {
          "internalType": "address",
          "name": "recipient",
          "type": "address"
        },
        {
          "internalType": "uint256",
          "name": "amount",
          "type": "uint256"
        }
      ],
      "name": "transfer",
      "outputs": [
        {
          "internalType": "bool",
          "name": "",
          "type": "bool"
        }
      ],
      "stateMutability": "nonpayable",
      "type": "function"
    },
    {
      "inputs": [
        {
          "internalType": "address",
          "name": "sender",
          "type": "address"
        },
        {
          "internalType": "address",
          "name": "recipient",
          "type": "address"
        },
        {
          "internalType": "uint256",
          "name": "amount",
          "type": "uint256"
        }
      ],
      "name": "transferFrom",
      "outputs": [
        {
          "internalType": "bool",
          "name": "",
          "type": "bool"
        }
      ],
      "stateMutability": "nonpayable",
      "type": "function"
    }
  ],
  "bytecode": "0x60806040523480156200001157600080fd5b5060405162001fad38038062001fad83398181016040528101906200003791906200049f565b82600090805190602001906200004f92919062000217565b5081600190805190602001906200006892919062000217565b506200007b3382620000c560201b60201c565b33600560006101000a81548173ffffffffffffffffffffffffffffffffffffffff021916908373ffffffffffffffffffffffffffffffffffffffff160217905550505050620006db565b600073ffffffffffffffffffffffffffffffffffffffff168273ffffffffffffffffffffffffffffffffffffffff16141562000138576040517f08c379a00000000000000000000000000000000000000000000000000000000081526004016200012f906200059a565b60405180910390fd5b80600260008282546200014c9190620005eb565b9250508190555080600360008473ffffffffffffffffffffffffffffffffffffffff1673ffffffffffffffffffffffffffffffffffffffff1681526020019081526020016000206000828254620001a49190620005eb565b925050819055508173ffffffffffffffffffffffffffffffffffffffff16600073ffffffffffffffffffffffffffffffffffffffff167fddf252ad1be2c89b69c2b068fc378daa952ba7f163c4a11628f55a4df523b3ef836040516200020b919062000659565b60405180910390a35050565b8280546200022590620006a5565b90600052602060002090601f01602090048101928262000249576000855562000295565b82601f106200026457805160ff191683800117855562000295565b8280016001018555821562000295579182015b828111156200029457825182559160200191906001019062000277565b5b509050620002a49190620002a8565b5090565b5b80821115620002c3576000816000905550600101620002a9565b5090565b6000604051905090565b600080fd5b600080fd5b600080fd5b600080fd5b6000601f19601f8301169050919050565b7f4e487b7100000000000000000000000000000000000000000000000000000000600052604160045260246000fd5b6200033082620002e5565b810181811067ffffffffffffffff82111715620003525762000351620002f6565b5b80604052505050565b600062000367620002c7565b905062000375828262000325565b919050565b600067ffffffffffffffff821115620003985762000397620002f6565b5b620003a382620002e5565b9050602081019050919050565b60005b83811015620003d0578082015181840152602081019050620003b3565b83811115620003e0576000848401525b50505050565b6000620003fd620003f7846200037a565b6200035b565b9050828152602081018484840111156200041c576200041b620002e0565b5b62000429848285620003b0565b509392505050565b600082601f830112620004495762000448620002db565b5b81516200045b848260208601620003e6565b91505092915050565b6000819050919050565b620004798162000464565b81146200048557600080fd5b50565b60008151905062000499816200046e565b92915050565b600080600060608486031215620004bb57620004ba620002d1565b5b600084015167ffffffffffffffff811115620004dc57620004db620002d6565b5b620004ea8682870162000431565b935050602084015167ffffffffffffffff8111156200050e576200050d620002d6565b5b6200051c8682870162000431565b92505060406200052f8682870162000488565b9150509250925092565b600082825260208201905092915050565b7f6164647265737320657272000000000000000000000000000000000000000000600082015250565b600062000582600b8362000539565b91506200058f826200054a565b602082019050919050565b60006020820190508181036000830152620005b58162000573565b9050919050565b7f4e487b7100000000000000000000000000000000000000000000000000000000600052601160045260246000fd5b6000620005f88262000464565b9150620006058362000464565b9250827fffffffffffffffffffffffffffffffffffffffffffffffffffffffffffffffff038211156200063d576200063c620005bc565b5b828201905092915050565b620006538162000464565b82525050565b600060208201905062000670600083018462000648565b92915050565b7f4e487b7100000000000000000000000000000000000000000000000000000000600052602260045260246000fd5b60006002820490506001821680620006be57607f821691505b60208210811415620006d557620006d462000676565b5b50919050565b6118c280620006eb6000396000f3fe608060405234801561001057600080fd5b50600436106101005760003560e01c806379cc679011610097578063a457c2d711610066578063a457c2d7146102af578063a9059cbb146102df578063c1b8411a1461030f578063dd62ed3e1461032d57610100565b806379cc67901461023b578063893d20e81461025757806395d89b411461027557806397304ced1461029357610100565b8063313ce567116100d3578063313ce567146101a157806339509351146101bf57806342966c68146101ef57806370a082311461020b57610100565b806306fdde0314610105578063095ea7b31461012357806318160ddd1461015357806323b872dd14610171575b600080fd5b61010d61035d565b60405161011a91906111d5565b60405180910390f35b61013d60048036038101906101389190611290565b6103eb565b60405161014a91906112eb565b60405180910390f35b61015b610402565b6040516101689190611315565b60405180910390f35b61018b60048036038101906101869190611330565b610408565b60405161019891906112eb565b60405180910390f35b6101a96105a0565b6040516101b6919061139f565b60405180910390f35b6101d960048036038101906101d49190611290565b6105a5565b6040516101e691906112eb565b60405180910390f35b610209600480360381019061020491906113ba565b610643565b005b610225600480360381019061022091906113e7565b610650565b6040516102329190611315565b60405180910390f35b61025560048036038101906102509190611290565b610699565b005b61025f6106cc565b60405161026c9190611423565b60405180910390f35b61027d6106f6565b60405161028a91906111d5565b60405180910390f35b6102ad60048036038101906102a891906113ba565b610784565b005b6102c960048036038101906102c49190611290565b610791565b6040516102d691906112eb565b60405180910390f35b6102f960048036038101906102f49190611290565b610877565b60405161030691906112eb565b60405180910390f35b61031761088e565b6040516103249190611423565b60405180910390f35b6103476004803603810190610342919061143e565b6108b4565b6040516103549190611315565b60405180910390f35b6000805461036a906114ad565b80601f0160208091040260200160405190810160405280929190818152602001828054610396906114ad565b80156103e35780601f106103b8576101008083540402835291602001916103e3565b820191906000526020600020905b8154815290600101906020018083116103c657829003601f168201915b505050505081565b60006103f833848461093b565b6001905092915050565b60025481565b6000610415848484610bab565b7fffffffffffffffffffffffffffffffffffffffffffffffffffffffffffffffff600460008673ffffffffffffffffffffffffffffffffffffffff1673ffffffffffffffffffffffffffffffffffffffff16815260200190815260200160002060003373ffffffffffffffffffffffffffffffffffffffff1673ffffffffffffffffffffffffffffffffffffffff168152602001908152602001600020541015610595576000600460008673ffffffffffffffffffffffffffffffffffffffff1673ffffffffffffffffffffffffffffffffffffffff16815260200190815260200160002060003373ffffffffffffffffffffffffffffffffffffffff1673ffffffffffffffffffffffffffffffffffffffff1681526020019081526020016000205490508281101561057d576040517f08c379a00000000000000000000000000000000000000000000000000000000081526004016105749061152b565b60405180910390fd5b6105938533858461058e919061157a565b61093b565b505b600190509392505050565b601281565b6000610639338484600460003373ffffffffffffffffffffffffffffffffffffffff1673ffffffffffffffffffffffffffffffffffffffff16815260200190815260200160002060008873ffffffffffffffffffffffffffffffffffffffff1673ffffffffffffffffffffffffffffffffffffffff1681526020019081526020016000205461063491906115ae565b61093b565b6001905092915050565b61064d3382610e28565b50565b6000600360008373ffffffffffffffffffffffffffffffffffffffff1673ffffffffffffffffffffffffffffffffffffffff168152602001908152602001600020549050919050565b6000816106a684336108b4565b6106b0919061157a565b90506106bd83338361093b565b6106c78383610e28565b505050565b6000600560009054906101000a900473ffffffffffffffffffffffffffffffffffffffff16905090565b60018054610703906114ad565b80601f016020809104026020016040519081016040528092919081815260200182805461072f906114ad565b801561077c5780601f106107515761010080835404028352916020019161077c565b820191906000526020600020905b81548152906001019060200180831161075f57829003601f168201915b505050505081565b61078e3382610ff3565b50565b600080600460003373ffffffffffffffffffffffffffffffffffffffff1673ffffffffffffffffffffffffffffffffffffffff16815260200190815260200160002060008573ffffffffffffffffffffffffffffffffffffffff1673ffffffffffffffffffffffffffffffffffffffff16815260200190815260200160002054905082811015610856576040517f08c379a000000000000000000000000000000000000000000000000000000000815260040161084d9061152b565b60405180910390fd5b61086c33858584610867919061157a565b61093b565b600191505092915050565b6000610884338484610bab565b6001905092915050565b600560009054906101000a900473ffffffffffffffffffffffffffffffffffffffff1681565b6000600460008473ffffffffffffffffffffffffffffffffffffffff1673ffffffffffffffffffffffffffffffffffffffff16815260200190815260200160002060008373ffffffffffffffffffffffffffffffffffffffff1673ffffffffffffffffffffffffffffffffffffffff16815260200190815260200160002054905092915050565b600073ffffffffffffffffffffffffffffffffffffffff168373ffffffffffffffffffffffffffffffffffffffff1614156109ab576040517f08c379a00000000000000000000000000000000000000000000000000000000081526004016109a290611650565b60405180910390fd5b600073ffffffffffffffffffffffffffffffffffffffff168273ffffffffffffffffffffffffffffffffffffffff161415610a1b576040517f08c379a0000000000000000000000000000000000000000000000000000000008152600401610a12906116bc565b60405180910390fd5b7fffffffffffffffffffffffffffffffffffffffffffffffffffffffffffffffff600460008573ffffffffffffffffffffffffffffffffffffffff1673ffffffffffffffffffffffffffffffffffffffff16815260200190815260200160002060008473ffffffffffffffffffffffffffffffffffffffff1673ffffffffffffffffffffffffffffffffffffffff168152602001908152602001600020541015610ba65780600460008573ffffffffffffffffffffffffffffffffffffffff1673ffffffffffffffffffffffffffffffffffffffff16815260200190815260200160002060008473ffffffffffffffffffffffffffffffffffffffff1673ffffffffffffffffffffffffffffffffffffffff168152602001908152602001600020819055508173ffffffffffffffffffffffffffffffffffffffff168373ffffffffffffffffffffffffffffffffffffffff167f8c5be1e5ebec7d5bd14f71427d1e84f3dd0314c0f7b2291e5b200ac8c7c3b92583604051610b9d9190611315565b60405180910390a35b505050565b600073ffffffffffffffffffffffffffffffffffffffff168373ffffffffffffffffffffffffffffffffffffffff161415610c1b576040517f08c379a0000000000000000000000000000000000000000000000000000000008152600401610c1290611728565b60405180910390fd5b3073ffffffffffffffffffffffffffffffffffffffff168273ffffffffffffffffffffffffffffffffffffffff161415610c8a576040517f08c379a0000000000000000000000000000000000000000000000000000000008152600401610c8190611794565b60405180910390fd5b6000600360008573ffffffffffffffffffffffffffffffffffffffff1673ffffffffffffffffffffffffffffffffffffffff16815260200190815260200160002054905081811015610d11576040517f08c379a0000000000000000000000000000000000000000000000000000000008152600401610d0890611800565b60405180910390fd5b81600360008673ffffffffffffffffffffffffffffffffffffffff1673ffffffffffffffffffffffffffffffffffffffff1681526020019081526020016000206000828254610d60919061157a565b9250508190555081600360008573ffffffffffffffffffffffffffffffffffffffff1673ffffffffffffffffffffffffffffffffffffffff1681526020019081526020016000206000828254610db691906115ae565b925050819055508273ffffffffffffffffffffffffffffffffffffffff168473ffffffffffffffffffffffffffffffffffffffff167fddf252ad1be2c89b69c2b068fc378daa952ba7f163c4a11628f55a4df523b3ef84604051610e1a9190611315565b60405180910390a350505050565b600073ffffffffffffffffffffffffffffffffffffffff168273ffffffffffffffffffffffffffffffffffffffff161415610e98576040517f08c379a0000000000000000000000000000000000000000000000000000000008152600401610e8f9061186c565b60405180910390fd5b80600360008473ffffffffffffffffffffffffffffffffffffffff1673ffffffffffffffffffffffffffffffffffffffff168152602001908152602001600020541015610f1a576040517f08c379a0000000000000000000000000000000000000000000000000000000008152600401610f1190611800565b60405180910390fd5b80600360008473ffffffffffffffffffffffffffffffffffffffff1673ffffffffffffffffffffffffffffffffffffffff1681526020019081526020016000206000828254610f69919061157a565b925050819055508060026000828254610f82919061157a565b92505081905550600073ffffffffffffffffffffffffffffffffffffffff168273ffffffffffffffffffffffffffffffffffffffff167fddf252ad1be2c89b69c2b068fc378daa952ba7f163c4a11628f55a4df523b3ef83604051610fe79190611315565b60405180910390a35050565b600073ffffffffffffffffffffffffffffffffffffffff168273ffffffffffffffffffffffffffffffffffffffff161415611063576040517f08c379a000000000000000000000000000000000000000000000000000000000815260040161105a9061186c565b60405180910390fd5b806002600082825461107591906115ae565b9250508190555080600360008473ffffffffffffffffffffffffffffffffffffffff1673ffffffffffffffffffffffffffffffffffffffff16815260200190815260200160002060008282546110cb91906115ae565b925050819055508173ffffffffffffffffffffffffffffffffffffffff16600073ffffffffffffffffffffffffffffffffffffffff167fddf252ad1be2c89b69c2b068fc378daa952ba7f163c4a11628f55a4df523b3ef836040516111309190611315565b60405180910390a35050565b600081519050919050565b600082825260208201905092915050565b60005b8381101561117657808201518184015260208101905061115b565b83811115611185576000848401525b50505050565b6000601f19601f8301169050919050565b60006111a78261113c565b6111b18185611147565b93506111c1818560208601611158565b6111ca8161118b565b840191505092915050565b600060208201905081810360008301526111ef818461119c565b905092915050565b600080fd5b600073ffffffffffffffffffffffffffffffffffffffff82169050919050565b6000611227826111fc565b9050919050565b6112378161121c565b811461124257600080fd5b50565b6000813590506112548161122e565b92915050565b6000819050919050565b61126d8161125a565b811461127857600080fd5b50565b60008135905061128a81611264565b92915050565b600080604083850312156112a7576112a66111f7565b5b60006112b585828601611245565b92505060206112c68582860161127b565b9150509250929050565b60008115159050919050565b6112e5816112d0565b82525050565b600060208201905061130060008301846112dc565b92915050565b61130f8161125a565b82525050565b600060208201905061132a6000830184611306565b92915050565b600080600060608486031215611349576113486111f7565b5b600061135786828701611245565b935050602061136886828701611245565b92505060406113798682870161127b565b9150509250925092565b600060ff82169050919050565b61139981611383565b82525050565b60006020820190506113b46000830184611390565b92915050565b6000602082840312156113d0576113cf6111f7565b5b60006113de8482850161127b565b91505092915050565b6000602082840312156113fd576113fc6111f7565b5b600061140b84828501611245565b91505092915050565b61141d8161121c565b82525050565b60006020820190506114386000830184611414565b92915050565b60008060408385031215611455576114546111f7565b5b600061146385828601611245565b925050602061147485828601611245565b9150509250929050565b7f4e487b7100000000000000000000000000000000000000000000000000000000600052602260045260246000fd5b600060028204905060018216806114c557607f821691505b602082108114156114d9576114d861147e565b5b50919050565b7f616c6c6f77616e63652065727200000000000000000000000000000000000000600082015250565b6000611515600d83611147565b9150611520826114df565b602082019050919050565b6000602082019050818103600083015261154481611508565b9050919050565b7f4e487b7100000000000000000000000000000000000000000000000000000000600052601160045260246000fd5b60006115858261125a565b91506115908361125a565b9250828210156115a3576115a261154b565b5b828203905092915050565b60006115b98261125a565b91506115c48361125a565b9250827fffffffffffffffffffffffffffffffffffffffffffffffffffffffffffffffff038211156115f9576115f861154b565b5b828201905092915050565b7f73656e6465720000000000000000000000000000000000000000000000000000600082015250565b600061163a600683611147565b915061164582611604565b602082019050919050565b600060208201905081810360008301526116698161162d565b9050919050565b7f7370656e64657200000000000000000000000000000000000000000000000000600082015250565b60006116a6600783611147565b91506116b182611670565b602082019050919050565b600060208201905081810360008301526116d581611699565b9050919050565b7f7472616e73666572206572720000000000000000000000000000000000000000600082015250565b6000611712600c83611147565b915061171d826116dc565b602082019050919050565b6000602082019050818103600083015261174181611705565b9050919050565b7f726563697069656e740000000000000000000000000000000000000000000000600082015250565b600061177e600983611147565b915061178982611748565b602082019050919050565b600060208201905081810360008301526117ad81611771565b9050919050565b7f62616c616e636520657272000000000000000000000000000000000000000000600082015250565b60006117ea600b83611147565b91506117f5826117b4565b602082019050919050565b60006020820190508181036000830152611819816117dd565b9050919050565b7f6164647265737320657272000000000000000000000000000000000000000000600082015250565b6000611856600b83611147565b915061186182611820565b602082019050919050565b6000602082019050818103600083015261188581611849565b905091905056fea2646970667358221220857f40f458ac600ad6222faf07721acd4bf4d9beca3209a3fc8892156b73675464736f6c63430008090033",
  "linkReferences": {},
  "deployedLinkReferences": {}
}