{
  "_format": "hh-sol-artifact-1",
  "contractName": "PoolFactory",
  "sourceName": "contracts/poolFactory.sol",
  "abi": [
    {
      "inputs": [
        {
          "internalType": "address",
          "name": "_wbnb",
          "type": "address"
        }
      ],
      "stateMutability": "nonpayable",
      "type": "constructor"
    },
    {
      "anonymous": false,
      "inputs": [
        {
          "indexed": true,
          "internalType": "address",
          "name": "tokenA",
          "type": "address"
        },
        {
          "indexed": true,
          "internalType": "address",
          "name": "tokenB",
          "type": "address"
        },
        {
          "indexed": false,
          "internalType": "address",
          "name": "pool",
          "type": "address"
        },
        {
          "indexed": false,
          "internalType": "uint256",
          "name": "",
          "type": "uint256"
        }
      ],
      "name": "PoolCreated",
      "type": "event"
    },
    {
      "inputs": [
        {
          "internalType": "uint256",
          "name": "",
          "type": "uint256"
        }
      ],
      "name": "allPools",
      "outputs": [
        {
          "internalType": "address",
          "name": "",
          "type": "address"
        }
      ],
      "stateMutability": "view",
      "type": "function"
    },
    {
      "inputs": [],
      "name": "allPoolsLength",
      "outputs": [
        {
          "internalType": "uint256",
          "name": "",
          "type": "uint256"
        }
      ],
      "stateMutability": "view",
      "type": "function"
    },
    {
      "inputs": [
        {
          "internalType": "uint256",
          "name": "inputA",
          "type": "uint256"
        },
        {
          "internalType": "uint256",
          "name": "inputB",
          "type": "uint256"
        },
        {
          "internalType": "address",
          "name": "tokenA",
          "type": "address"
        },
        {
          "internalType": "address",
          "name": "tokenB",
          "type": "address"
        }
      ],
      "name": "createPool",
      "outputs": [
        {
          "internalType": "address",
          "name": "pool",
          "type": "address"
        }
      ],
      "stateMutability": "payable",
      "type": "function"
    },
    {
      "inputs": [
        {
          "internalType": "address",
          "name": "",
          "type": "address"
        },
        {
          "internalType": "address",
          "name": "",
          "type": "address"
        }
      ],
      "name": "getPool",
      "outputs": [
        {
          "internalType": "address",
          "name": "",
          "type": "address"
        }
      ],
      "stateMutability": "view",
      "type": "function"
    },
    {
      "inputs": [
        {
          "internalType": "address",
          "name": "",
          "type": "address"
        }
      ],
      "name": "isPool",
      "outputs": [
        {
          "internalType": "bool",
          "name": "",
          "type": "bool"
        }
      ],
      "stateMutability": "view",
      "type": "function"
    }
  ],
  "bytecode": "0x60a060405234801561001057600080fd5b50604051620030d1380380620030d1833981810160405281019061003491906100d1565b8073ffffffffffffffffffffffffffffffffffffffff1660808173ffffffffffffffffffffffffffffffffffffffff1681525050506100fe565b600080fd5b600073ffffffffffffffffffffffffffffffffffffffff82169050919050565b600061009e82610073565b9050919050565b6100ae81610093565b81146100b957600080fd5b50565b6000815190506100cb816100a5565b92915050565b6000602082840312156100e7576100e661006e565b5b60006100f5848285016100bc565b91505092915050565b608051612fa9620001286000396000818161024d0152818161080301526108970152612fa96000f3fe60806040526004361061004a5760003560e01c80633b175a8a1461004f57806341d1de971461007f578063531aa03e146100bc5780635b16ebb7146100f9578063efde4e6414610136575b600080fd5b61006960048036038101906100649190610a8d565b610161565b6040516100769190610b03565b60405180910390f35b34801561008b57600080fd5b506100a660048036038101906100a19190610b1e565b610703565b6040516100b39190610b03565b60405180910390f35b3480156100c857600080fd5b506100e360048036038101906100de9190610b4b565b610742565b6040516100f09190610b03565b60405180910390f35b34801561010557600080fd5b50610120600480360381019061011b9190610b8b565b610784565b60405161012d9190610bd3565b60405180910390f35b34801561014257600080fd5b5061014b6107a4565b6040516101589190610bfd565b60405180910390f35b60008173ffffffffffffffffffffffffffffffffffffffff168373ffffffffffffffffffffffffffffffffffffffff1614156101d2576040517f08c379a00000000000000000000000000000000000000000000000000000000081526004016101c990610c9b565b60405180910390fd5b6000808373ffffffffffffffffffffffffffffffffffffffff168573ffffffffffffffffffffffffffffffffffffffff161061020f578385610212565b84845b91509150600073ffffffffffffffffffffffffffffffffffffffff168273ffffffffffffffffffffffffffffffffffffffff16141561026f577f000000000000000000000000000000000000000000000000000000000000000091505b600073ffffffffffffffffffffffffffffffffffffffff166000808473ffffffffffffffffffffffffffffffffffffffff1673ffffffffffffffffffffffffffffffffffffffff16815260200190815260200160002060008373ffffffffffffffffffffffffffffffffffffffff1673ffffffffffffffffffffffffffffffffffffffff16815260200190815260200160002060009054906101000a900473ffffffffffffffffffffffffffffffffffffffff1673ffffffffffffffffffffffffffffffffffffffff1614610379576040517f08c379a000000000000000000000000000000000000000000000000000000000815260040161037090610d07565b60405180910390fd5b60006040518060200161038b906109e7565b6020820181038252601f19601f820116604052509050600083836040516020016103b6929190610d6f565b604051602081830303815290604052805190602001209050808251602084016000f594508473ffffffffffffffffffffffffffffffffffffffff1663485cc95585856040518363ffffffff1660e01b8152600401610415929190610d9b565b600060405180830381600087803b15801561042f57600080fd5b505af1158015610443573d6000803e3d6000fd5b50505050846000808673ffffffffffffffffffffffffffffffffffffffff1673ffffffffffffffffffffffffffffffffffffffff16815260200190815260200160002060008573ffffffffffffffffffffffffffffffffffffffff1673ffffffffffffffffffffffffffffffffffffffff16815260200190815260200160002060006101000a81548173ffffffffffffffffffffffffffffffffffffffff021916908373ffffffffffffffffffffffffffffffffffffffff160217905550846000808573ffffffffffffffffffffffffffffffffffffffff1673ffffffffffffffffffffffffffffffffffffffff16815260200190815260200160002060008673ffffffffffffffffffffffffffffffffffffffff1673ffffffffffffffffffffffffffffffffffffffff16815260200190815260200160002060006101000a81548173ffffffffffffffffffffffffffffffffffffffff021916908373ffffffffffffffffffffffffffffffffffffffff1602179055506105c6878a876107b1565b6105d18689876107b1565b6002859080600181540180825580915050600190039060005260206000200160009091909190916101000a81548173ffffffffffffffffffffffffffffffffffffffff021916908373ffffffffffffffffffffffffffffffffffffffff16021790555060018060008773ffffffffffffffffffffffffffffffffffffffff1673ffffffffffffffffffffffffffffffffffffffff16815260200190815260200160002060006101000a81548160ff0219169083151502179055508273ffffffffffffffffffffffffffffffffffffffff168473ffffffffffffffffffffffffffffffffffffffff167febbbe9dc3a19d2f959ac76ac0372b4983cdfb945f5d6aef4873c36fabb2ba8aa876002805490506040516106ef929190610dc4565b60405180910390a350505050949350505050565b6002818154811061071357600080fd5b906000526020600020016000915054906101000a900473ffffffffffffffffffffffffffffffffffffffff1681565b60006020528160005260406000206020528060005260406000206000915091509054906101000a900473ffffffffffffffffffffffffffffffffffffffff1681565b60016020528060005260406000206000915054906101000a900460ff1681565b6000600280549050905090565b600082116107be57600080fd5b600073ffffffffffffffffffffffffffffffffffffffff168373ffffffffffffffffffffffffffffffffffffffff161415610949573482146107ff57600080fd5b60007f000000000000000000000000000000000000000000000000000000000000000073ffffffffffffffffffffffffffffffffffffffff168360405161084590610e1e565b60006040518083038185875af1925050503d8060008114610882576040519150601f19603f3d011682016040523d82523d6000602084013e610887565b606091505b505090508061089557600080fd5b7f000000000000000000000000000000000000000000000000000000000000000073ffffffffffffffffffffffffffffffffffffffff1663a9059cbb83856040518363ffffffff1660e01b81526004016108f0929190610dc4565b602060405180830381600087803b15801561090a57600080fd5b505af115801561091e573d6000803e3d6000fd5b505050506040513d601f19601f820116820180604052508101906109429190610e5f565b50506109e2565b8273ffffffffffffffffffffffffffffffffffffffff166323b872dd3383856040518463ffffffff1660e01b815260040161098693929190610e8c565b602060405180830381600087803b1580156109a057600080fd5b505af11580156109b4573d6000803e3d6000fd5b505050506040513d601f19601f820116820180604052508101906109d89190610e5f565b6109e157600080fd5b5b505050565b6120b080610ec483390190565b600080fd5b6000819050919050565b610a0c816109f9565b8114610a1757600080fd5b50565b600081359050610a2981610a03565b92915050565b600073ffffffffffffffffffffffffffffffffffffffff82169050919050565b6000610a5a82610a2f565b9050919050565b610a6a81610a4f565b8114610a7557600080fd5b50565b600081359050610a8781610a61565b92915050565b60008060008060808587031215610aa757610aa66109f4565b5b6000610ab587828801610a1a565b9450506020610ac687828801610a1a565b9350506040610ad787828801610a78565b9250506060610ae887828801610a78565b91505092959194509250565b610afd81610a4f565b82525050565b6000602082019050610b186000830184610af4565b92915050565b600060208284031215610b3457610b336109f4565b5b6000610b4284828501610a1a565b91505092915050565b60008060408385031215610b6257610b616109f4565b5b6000610b7085828601610a78565b9250506020610b8185828601610a78565b9150509250929050565b600060208284031215610ba157610ba06109f4565b5b6000610baf84828501610a78565b91505092915050565b60008115159050919050565b610bcd81610bb8565b82525050565b6000602082019050610be86000830184610bc4565b92915050565b610bf7816109f9565b82525050565b6000602082019050610c126000830184610bee565b92915050565b600082825260208201905092915050565b7f5370617274616e50726f746f63616c506f6f6c3a204944454e544943414c5f4160008201527f4444524553534553000000000000000000000000000000000000000000000000602082015250565b6000610c85602883610c18565b9150610c9082610c29565b604082019050919050565b60006020820190508181036000830152610cb481610c78565b9050919050565b7f5370617274616e50726f746f63616c506f6f6c3a20504f4f4c5f455849535453600082015250565b6000610cf1602083610c18565b9150610cfc82610cbb565b602082019050919050565b60006020820190508181036000830152610d2081610ce4565b9050919050565b60008160601b9050919050565b6000610d3f82610d27565b9050919050565b6000610d5182610d34565b9050919050565b610d69610d6482610a4f565b610d46565b82525050565b6000610d7b8285610d58565b601482019150610d8b8284610d58565b6014820191508190509392505050565b6000604082019050610db06000830185610af4565b610dbd6020830184610af4565b9392505050565b6000604082019050610dd96000830185610af4565b610de66020830184610bee565b9392505050565b600081905092915050565b50565b6000610e08600083610ded565b9150610e1382610df8565b600082019050919050565b6000610e2982610dfb565b9150819050919050565b610e3c81610bb8565b8114610e4757600080fd5b50565b600081519050610e5981610e33565b92915050565b600060208284031215610e7557610e746109f4565b5b6000610e8384828501610e4a565b91505092915050565b6000606082019050610ea16000830186610af4565b610eae6020830185610af4565b610ebb6040830184610bee565b94935050505056fe60a060405234801561001057600080fd5b503373ffffffffffffffffffffffffffffffffffffffff1660808173ffffffffffffffffffffffffffffffffffffffff168152505060805161204261006e6000396000818161066f0152818161077e0152610c6101526120426000f3fe608060405234801561001057600080fd5b506004361061014d5760003560e01c80634f2be91f116100c3578063a457c2d71161007c578063a457c2d714610396578063a7f0b3de146103c6578063a7f43779146103e4578063a9059cbb14610402578063ba9a7a5614610432578063dd62ed3e146104505761014d565b80634f2be91f146102d057806370a08231146102ee5780638119c0651461031e57806382bfefc81461033c578063893d20e81461035a57806395d89b41146103785761014d565b80632dd31000116101155780632dd310001461020e578063313ce5671461022c578063395093511461024a57806342966c681461027a5780634800d97f14610296578063485cc955146102b45761014d565b806306fdde03146101525780630902f1ac14610170578063095ea7b31461019057806318160ddd146101c057806323b872dd146101de575b600080fd5b61015a610480565b604051610167919061163f565b60405180910390f35b610178610512565b6040516101879392919061167a565b60405180910390f35b6101aa60048036038101906101a5919061174f565b610585565b6040516101b791906117aa565b60405180910390f35b6101c861059c565b6040516101d591906117c5565b60405180910390f35b6101f860048036038101906101f391906117e0565b6105a2565b60405161020591906117aa565b60405180910390f35b61021661066d565b6040516102239190611842565b60405180910390f35b610234610691565b6040516102419190611879565b60405180910390f35b610264600480360381019061025f919061174f565b6106a4565b60405161027191906117aa565b60405180910390f35b610294600480360381019061028f9190611894565b610749565b005b61029e610756565b6040516102ab9190611842565b60405180910390f35b6102ce60048036038101906102c991906118c1565b61077c565b005b6102d8610be4565b6040516102e591906117c5565b60405180910390f35b61030860048036038101906103039190611901565b610be9565b60405161031591906117c5565b60405180910390f35b610326610c32565b60405161033391906117c5565b60405180910390f35b610344610c37565b6040516103519190611842565b60405180910390f35b610362610c5d565b60405161036f9190611842565b60405180910390f35b610380610c85565b60405161038d919061163f565b60405180910390f35b6103b060048036038101906103ab919061174f565b610d17565b6040516103bd91906117aa565b60405180910390f35b6103ce610dd6565b6040516103db91906117c5565b60405180910390f35b6103ec610ddc565b6040516103f991906117aa565b60405180910390f35b61041c6004803603810190610417919061174f565b610de1565b60405161042991906117aa565b60405180910390f35b61043a610df8565b60405161044791906117c5565b60405180910390f35b61046a600480360381019061046591906118c1565b610dfe565b60405161047791906117c5565b60405180910390f35b60606000805461048f9061195d565b80601f01602080910402602001604051908101604052809291908181526020018280546104bb9061195d565b80156105085780601f106104dd57610100808354040283529160200191610508565b820191906000526020600020905b8154815290600101906020018083116104eb57829003601f168201915b5050505050905090565b6000806000600260009054906101000a90046fffffffffffffffffffffffffffffffff166fffffffffffffffffffffffffffffffff169250600260109054906101000a90046fffffffffffffffffffffffffffffffff166fffffffffffffffffffffffffffffffff169150429050909192565b6000610592338484610e85565b6001905092915050565b60055481565b60006105af848484611050565b610662843361065d85604051806060016040528060288152602001611f7860289139600960008b73ffffffffffffffffffffffffffffffffffffffff1673ffffffffffffffffffffffffffffffffffffffff16815260200190815260200160002060003373ffffffffffffffffffffffffffffffffffffffff1673ffffffffffffffffffffffffffffffffffffffff168152602001908152602001600020546112de9092919063ffffffff16565b610e85565b600190509392505050565b7f000000000000000000000000000000000000000000000000000000000000000081565b600360009054906101000a900460ff1681565b600061073f338461073a85600960003373ffffffffffffffffffffffffffffffffffffffff1673ffffffffffffffffffffffffffffffffffffffff16815260200190815260200160002060008973ffffffffffffffffffffffffffffffffffffffff1673ffffffffffffffffffffffffffffffffffffffff1681526020019081526020016000205461133390919063ffffffff16565b610e85565b6001905092915050565b6107533382611349565b50565b600660009054906101000a900473ffffffffffffffffffffffffffffffffffffffff1681565b7f000000000000000000000000000000000000000000000000000000000000000073ffffffffffffffffffffffffffffffffffffffff163373ffffffffffffffffffffffffffffffffffffffff161461080a576040517f08c379a0000000000000000000000000000000000000000000000000000000008152600401610801906119db565b60405180910390fd5b81600660006101000a81548173ffffffffffffffffffffffffffffffffffffffff021916908373ffffffffffffffffffffffffffffffffffffffff16021790555080600760006101000a81548173ffffffffffffffffffffffffffffffffffffffff021916908373ffffffffffffffffffffffffffffffffffffffff16021790555060006040518060400160405280601481526020017f2d5370617274616e50726f746f636f6c506f6f6c000000000000000000000000815250905060006040518060400160405280600481526020017f2d53505000000000000000000000000000000000000000000000000000000000815250905060006040518060400160405280600181526020017f2f0000000000000000000000000000000000000000000000000000000000000081525090508473ffffffffffffffffffffffffffffffffffffffff166306fdde036040518163ffffffff1660e01b815260040160006040518083038186803b15801561098057600080fd5b505afa158015610994573d6000803e3d6000fd5b505050506040513d6000823e3d601f19601f820116820180604052508101906109bd9190611b21565b818573ffffffffffffffffffffffffffffffffffffffff166306fdde036040518163ffffffff1660e01b815260040160006040518083038186803b158015610a0457600080fd5b505afa158015610a18573d6000803e3d6000fd5b505050506040513d6000823e3d601f19601f82011682018060405250810190610a419190611b21565b85604051602001610a559493929190611ba6565b60405160208183030381529060405260009080519060200190610a79929190611503565b508473ffffffffffffffffffffffffffffffffffffffff166306fdde036040518163ffffffff1660e01b815260040160006040518083038186803b158015610ac057600080fd5b505afa158015610ad4573d6000803e3d6000fd5b505050506040513d6000823e3d601f19601f82011682018060405250810190610afd9190611b21565b818573ffffffffffffffffffffffffffffffffffffffff166306fdde036040518163ffffffff1660e01b815260040160006040518083038186803b158015610b4457600080fd5b505afa158015610b58573d6000803e3d6000fd5b505050506040513d6000823e3d601f19601f82011682018060405250810190610b819190611b21565b84604051602001610b959493929190611ba6565b60405160208183030381529060405260019080519060200190610bb9929190611503565b506012600360006101000a81548160ff021916908360ff160217905550426004819055505050505050565b600090565b6000600860008373ffffffffffffffffffffffffffffffffffffffff1673ffffffffffffffffffffffffffffffffffffffff168152602001908152602001600020549050919050565b600090565b600760009054906101000a900473ffffffffffffffffffffffffffffffffffffffff1681565b60007f0000000000000000000000000000000000000000000000000000000000000000905090565b606060018054610c949061195d565b80601f0160208091040260200160405190810160405280929190818152602001828054610cc09061195d565b8015610d0d5780601f10610ce257610100808354040283529160200191610d0d565b820191906000526020600020905b815481529060010190602001808311610cf057829003601f168201915b5050505050905090565b6000610dcc3384610dc785604051806060016040528060258152602001611fc660259139600960003373ffffffffffffffffffffffffffffffffffffffff1673ffffffffffffffffffffffffffffffffffffffff16815260200190815260200160002060008a73ffffffffffffffffffffffffffffffffffffffff1673ffffffffffffffffffffffffffffffffffffffff168152602001908152602001600020546112de9092919063ffffffff16565b610e85565b6001905092915050565b60045481565b600090565b6000610dee338484611050565b6001905092915050565b6103e881565b6000600960008473ffffffffffffffffffffffffffffffffffffffff1673ffffffffffffffffffffffffffffffffffffffff16815260200190815260200160002060008373ffffffffffffffffffffffffffffffffffffffff1673ffffffffffffffffffffffffffffffffffffffff16815260200190815260200160002054905092915050565b600073ffffffffffffffffffffffffffffffffffffffff168373ffffffffffffffffffffffffffffffffffffffff161415610ef5576040517f08c379a0000000000000000000000000000000000000000000000000000000008152600401610eec90611c56565b60405180910390fd5b600073ffffffffffffffffffffffffffffffffffffffff168273ffffffffffffffffffffffffffffffffffffffff161415610f65576040517f08c379a0000000000000000000000000000000000000000000000000000000008152600401610f5c90611ce8565b60405180910390fd5b80600960008573ffffffffffffffffffffffffffffffffffffffff1673ffffffffffffffffffffffffffffffffffffffff16815260200190815260200160002060008473ffffffffffffffffffffffffffffffffffffffff1673ffffffffffffffffffffffffffffffffffffffff168152602001908152602001600020819055508173ffffffffffffffffffffffffffffffffffffffff168373ffffffffffffffffffffffffffffffffffffffff167f8c5be1e5ebec7d5bd14f71427d1e84f3dd0314c0f7b2291e5b200ac8c7c3b9258360405161104391906117c5565b60405180910390a3505050565b600073ffffffffffffffffffffffffffffffffffffffff168373ffffffffffffffffffffffffffffffffffffffff1614156110c0576040517f08c379a00000000000000000000000000000000000000000000000000000000081526004016110b790611d7a565b60405180910390fd5b600073ffffffffffffffffffffffffffffffffffffffff168273ffffffffffffffffffffffffffffffffffffffff161415611130576040517f08c379a000000000000000000000000000000000000000000000000000000000815260040161112790611e0c565b60405180910390fd5b61119c81604051806060016040528060268152602001611fa060269139600860008773ffffffffffffffffffffffffffffffffffffffff1673ffffffffffffffffffffffffffffffffffffffff168152602001908152602001600020546112de9092919063ffffffff16565b600860008573ffffffffffffffffffffffffffffffffffffffff1673ffffffffffffffffffffffffffffffffffffffff1681526020019081526020016000208190555061123181600860008573ffffffffffffffffffffffffffffffffffffffff1673ffffffffffffffffffffffffffffffffffffffff1681526020019081526020016000205461133390919063ffffffff16565b600860008473ffffffffffffffffffffffffffffffffffffffff1673ffffffffffffffffffffffffffffffffffffffff168152602001908152602001600020819055508173ffffffffffffffffffffffffffffffffffffffff168373ffffffffffffffffffffffffffffffffffffffff167fddf252ad1be2c89b69c2b068fc378daa952ba7f163c4a11628f55a4df523b3ef836040516112d191906117c5565b60405180910390a3505050565b6000838311158290611326576040517f08c379a000000000000000000000000000000000000000000000000000000000815260040161131d919061163f565b60405180910390fd5b5082840390509392505050565b600081836113419190611e5b565b905092915050565b600073ffffffffffffffffffffffffffffffffffffffff168273ffffffffffffffffffffffffffffffffffffffff1614156113b9576040517f08c379a00000000000000000000000000000000000000000000000000000000081526004016113b090611f23565b60405180910390fd5b61142581604051806060016040528060228152602001611feb60229139600860008673ffffffffffffffffffffffffffffffffffffffff1673ffffffffffffffffffffffffffffffffffffffff168152602001908152602001600020546112de9092919063ffffffff16565b600860008473ffffffffffffffffffffffffffffffffffffffff1673ffffffffffffffffffffffffffffffffffffffff1681526020019081526020016000208190555061147d816005546114ed90919063ffffffff16565b600581905550600073ffffffffffffffffffffffffffffffffffffffff168273ffffffffffffffffffffffffffffffffffffffff167fddf252ad1be2c89b69c2b068fc378daa952ba7f163c4a11628f55a4df523b3ef836040516114e191906117c5565b60405180910390a35050565b600081836114fb9190611f43565b905092915050565b82805461150f9061195d565b90600052602060002090601f0160209004810192826115315760008555611578565b82601f1061154a57805160ff1916838001178555611578565b82800160010185558215611578579182015b8281111561157757825182559160200191906001019061155c565b5b5090506115859190611589565b5090565b5b808211156115a257600081600090555060010161158a565b5090565b600081519050919050565b600082825260208201905092915050565b60005b838110156115e05780820151818401526020810190506115c5565b838111156115ef576000848401525b50505050565b6000601f19601f8301169050919050565b6000611611826115a6565b61161b81856115b1565b935061162b8185602086016115c2565b611634816115f5565b840191505092915050565b600060208201905081810360008301526116598184611606565b905092915050565b6000819050919050565b61167481611661565b82525050565b600060608201905061168f600083018661166b565b61169c602083018561166b565b6116a9604083018461166b565b949350505050565b6000604051905090565b600080fd5b600080fd5b600073ffffffffffffffffffffffffffffffffffffffff82169050919050565b60006116f0826116c5565b9050919050565b611700816116e5565b811461170b57600080fd5b50565b60008135905061171d816116f7565b92915050565b61172c81611661565b811461173757600080fd5b50565b60008135905061174981611723565b92915050565b60008060408385031215611766576117656116bb565b5b60006117748582860161170e565b92505060206117858582860161173a565b9150509250929050565b60008115159050919050565b6117a48161178f565b82525050565b60006020820190506117bf600083018461179b565b92915050565b60006020820190506117da600083018461166b565b92915050565b6000806000606084860312156117f9576117f86116bb565b5b60006118078682870161170e565b93505060206118188682870161170e565b92505060406118298682870161173a565b9150509250925092565b61183c816116e5565b82525050565b60006020820190506118576000830184611833565b92915050565b600060ff82169050919050565b6118738161185d565b82525050565b600060208201905061188e600083018461186a565b92915050565b6000602082840312156118aa576118a96116bb565b5b60006118b88482850161173a565b91505092915050565b600080604083850312156118d8576118d76116bb565b5b60006118e68582860161170e565b92505060206118f78582860161170e565b9150509250929050565b600060208284031215611917576119166116bb565b5b60006119258482850161170e565b91505092915050565b7f4e487b7100000000000000000000000000000000000000000000000000000000600052602260045260246000fd5b6000600282049050600182168061197557607f821691505b602082108114156119895761198861192e565b5b50919050565b7f5350415254414e50524f544f434f4c3a20464f5242494444454e000000000000600082015250565b60006119c5601a836115b1565b91506119d08261198f565b602082019050919050565b600060208201905081810360008301526119f4816119b8565b9050919050565b600080fd5b600080fd5b7f4e487b7100000000000000000000000000000000000000000000000000000000600052604160045260246000fd5b611a3d826115f5565b810181811067ffffffffffffffff82111715611a5c57611a5b611a05565b5b80604052505050565b6000611a6f6116b1565b9050611a7b8282611a34565b919050565b600067ffffffffffffffff821115611a9b57611a9a611a05565b5b611aa4826115f5565b9050602081019050919050565b6000611ac4611abf84611a80565b611a65565b905082815260208101848484011115611ae057611adf611a00565b5b611aeb8482856115c2565b509392505050565b600082601f830112611b0857611b076119fb565b5b8151611b18848260208601611ab1565b91505092915050565b600060208284031215611b3757611b366116bb565b5b600082015167ffffffffffffffff811115611b5557611b546116c0565b5b611b6184828501611af3565b91505092915050565b600081905092915050565b6000611b80826115a6565b611b8a8185611b6a565b9350611b9a8185602086016115c2565b80840191505092915050565b6000611bb28287611b75565b9150611bbe8286611b75565b9150611bca8285611b75565b9150611bd68284611b75565b915081905095945050505050565b7f42455032303a20617070726f76652066726f6d20746865207a65726f2061646460008201527f7265737300000000000000000000000000000000000000000000000000000000602082015250565b6000611c406024836115b1565b9150611c4b82611be4565b604082019050919050565b60006020820190508181036000830152611c6f81611c33565b9050919050565b7f42455032303a20617070726f766520746f20746865207a65726f20616464726560008201527f7373000000000000000000000000000000000000000000000000000000000000602082015250565b6000611cd26022836115b1565b9150611cdd82611c76565b604082019050919050565b60006020820190508181036000830152611d0181611cc5565b9050919050565b7f42455032303a207472616e736665722066726f6d20746865207a65726f20616460008201527f6472657373000000000000000000000000000000000000000000000000000000602082015250565b6000611d646025836115b1565b9150611d6f82611d08565b604082019050919050565b60006020820190508181036000830152611d9381611d57565b9050919050565b7f42455032303a207472616e7366657220746f20746865207a65726f206164647260008201527f6573730000000000000000000000000000000000000000000000000000000000602082015250565b6000611df66023836115b1565b9150611e0182611d9a565b604082019050919050565b60006020820190508181036000830152611e2581611de9565b9050919050565b7f4e487b7100000000000000000000000000000000000000000000000000000000600052601160045260246000fd5b6000611e6682611661565b9150611e7183611661565b9250827fffffffffffffffffffffffffffffffffffffffffffffffffffffffffffffffff03821115611ea657611ea5611e2c565b5b828201905092915050565b7f42455032303a206275726e2066726f6d20746865207a65726f2061646472657360008201527f7300000000000000000000000000000000000000000000000000000000000000602082015250565b6000611f0d6021836115b1565b9150611f1882611eb1565b604082019050919050565b60006020820190508181036000830152611f3c81611f00565b9050919050565b6000611f4e82611661565b9150611f5983611661565b925082821015611f6c57611f6b611e2c565b5b82820390509291505056fe42455032303a207472616e7366657220616d6f756e74206578636565647320616c6c6f77616e636542455032303a207472616e7366657220616d6f756e7420657863656564732062616c616e636542455032303a2064656372656173656420616c6c6f77616e63652062656c6f77207a65726f42455032303a206275726e20616d6f756e7420657863656564732062616c616e6365a26469706673582212204520d1cf9b855f69692cda21abb0783bde669bd59237245d1438eced7e95a4cb64736f6c63430008090033a2646970667358221220ac62cfc558ae842a327e94fa0bd55df3a6d7bd64916d20866745c0b711d5802d64736f6c63430008090033",
  "linkReferences": {},
  "deployedLinkReferences": {}
}